{
  "contractName": "AuthenticatedProxy",
  "abi": [
    {
      "constant": true,
      "inputs": [],
      "name": "proxyType",
      "outputs": [
        {
          "name": "proxyTypeId",
          "type": "uint256"
        }
      ],
      "payable": false,
      "stateMutability": "pure",
      "type": "function"
    },
    {
      "constant": true,
      "inputs": [],
      "name": "user",
      "outputs": [
        {
          "name": "",
          "type": "address"
        }
      ],
      "payable": false,
      "stateMutability": "view",
      "type": "function"
    },
    {
      "constant": true,
      "inputs": [],
      "name": "implementation",
      "outputs": [
        {
          "name": "",
          "type": "address"
        }
      ],
      "payable": false,
      "stateMutability": "view",
      "type": "function"
    },
    {
      "constant": true,
      "inputs": [],
      "name": "revoked",
      "outputs": [
        {
          "name": "",
          "type": "bool"
        }
      ],
      "payable": false,
      "stateMutability": "view",
      "type": "function"
    },
    {
      "constant": true,
      "inputs": [],
      "name": "upgradeabilityOwner",
      "outputs": [
        {
          "name": "",
          "type": "address"
        }
      ],
      "payable": false,
      "stateMutability": "view",
      "type": "function"
    },
    {
      "constant": true,
      "inputs": [],
      "name": "registry",
      "outputs": [
        {
          "name": "",
          "type": "address"
        }
      ],
      "payable": false,
      "stateMutability": "view",
      "type": "function"
    },
    {
      "constant": false,
      "inputs": [
        {
          "name": "from",
          "type": "address"
        },
        {
          "name": "value",
          "type": "uint256"
        },
        {
          "name": "token",
          "type": "address"
        },
        {
          "name": "extraData",
          "type": "bytes"
        }
      ],
      "name": "receiveApproval",
      "outputs": [],
      "payable": false,
      "stateMutability": "nonpayable",
      "type": "function"
    },
    {
      "payable": true,
      "stateMutability": "payable",
      "type": "fallback"
    },
    {
      "anonymous": false,
      "inputs": [
        {
          "indexed": false,
          "name": "revoked",
          "type": "bool"
        }
      ],
      "name": "Revoked",
      "type": "event"
    },
    {
      "anonymous": false,
      "inputs": [
        {
          "indexed": true,
          "name": "sender",
          "type": "address"
        },
        {
          "indexed": false,
          "name": "amount",
          "type": "uint256"
        }
      ],
      "name": "ReceivedEther",
      "type": "event"
    },
    {
      "anonymous": false,
      "inputs": [
        {
          "indexed": true,
          "name": "from",
          "type": "address"
        },
        {
          "indexed": false,
          "name": "value",
          "type": "uint256"
        },
        {
          "indexed": true,
          "name": "token",
          "type": "address"
        },
        {
          "indexed": false,
          "name": "extraData",
          "type": "bytes"
        }
      ],
      "name": "ReceivedTokens",
      "type": "event"
    },
    {
      "constant": false,
      "inputs": [
        {
          "name": "addrUser",
          "type": "address"
        },
        {
          "name": "addrRegistry",
          "type": "address"
        }
      ],
      "name": "initialize",
      "outputs": [],
      "payable": false,
      "stateMutability": "nonpayable",
      "type": "function"
    },
    {
      "constant": false,
      "inputs": [
        {
          "name": "revoke",
          "type": "bool"
        }
      ],
      "name": "setRevoke",
      "outputs": [],
      "payable": false,
      "stateMutability": "nonpayable",
      "type": "function"
    },
    {
      "constant": false,
      "inputs": [
        {
          "name": "dest",
          "type": "address"
        },
        {
          "name": "howToCall",
          "type": "uint8"
        },
        {
          "name": "calldata",
          "type": "bytes"
        }
      ],
      "name": "proxy",
      "outputs": [
        {
          "name": "result",
          "type": "bool"
        }
      ],
      "payable": false,
      "stateMutability": "nonpayable",
      "type": "function"
    },
    {
      "constant": false,
      "inputs": [
        {
          "name": "dest",
          "type": "address"
        },
        {
          "name": "howToCall",
          "type": "uint8"
        },
        {
          "name": "calldata",
          "type": "bytes"
        }
      ],
      "name": "proxyAssert",
      "outputs": [],
      "payable": false,
      "stateMutability": "nonpayable",
      "type": "function"
    }
  ],
  "bytecode": "0x60806040526001805460a060020a60ff021916905534801561002057600080fd5b50610979806100306000396000f3006080604052600436106100ae5763ffffffff7c01000000000000000000000000000000000000000000000000000000006000350416631b0f7ba981146100fc5780633f801f91146101895780634555d5c914610204578063485cc9551461022b5780634c93505f1461025f5780634f8632ba146102795780635c60da1b146102b757806363d256ce146102cc5780636fde8202146102e15780637b103999146102f65780638f4ffcb11461030b575b60408051348152905173ffffffffffffffffffffffffffffffffffffffff3316917fa419615bc8fda4c87663805ee2a3597a6d71c1d476911d9892f340d965bc7bf1919081900360200190a2005b34801561010857600080fd5b50604080516020600460443581810135601f810184900484028501840190955284845261017594823573ffffffffffffffffffffffffffffffffffffffff16946024803560ff16953695946064949201919081908401838280828437509497506103889650505050505050565b604080519115158252519081900360200190f35b34801561019557600080fd5b50604080516020600460443581810135601f810184900484028501840190955284845261020294823573ffffffffffffffffffffffffffffffffffffffff16946024803560ff16953695946064949201919081908401838280828437509497506105c19650505050505050565b005b34801561021057600080fd5b506102196105dc565b60408051918252519081900360200190f35b34801561023757600080fd5b5061020273ffffffffffffffffffffffffffffffffffffffff600435811690602435166105e1565b34801561026b57600080fd5b506102026004351515610691565b34801561028557600080fd5b5061028e61072e565b6040805173ffffffffffffffffffffffffffffffffffffffff9092168252519081900360200190f35b3480156102c357600080fd5b5061028e61074a565b3480156102d857600080fd5b50610175610766565b3480156102ed57600080fd5b5061028e610787565b34801561030257600080fd5b5061028e6107a3565b34801561031757600080fd5b50604080516020601f6064356004818101359283018490048402850184019095528184526102029473ffffffffffffffffffffffffffffffffffffffff8135811695602480359660443590931695369560849492019181908401838280828437509497506107bf9650505050505050565b6002546000903373ffffffffffffffffffffffffffffffffffffffff90811691161480610478575060035474010000000000000000000000000000000000000000900460ff161580156104785750600354604080517f69dc9ff300000000000000000000000000000000000000000000000000000000815273ffffffffffffffffffffffffffffffffffffffff3381166004830152915191909216916369dc9ff39160248083019260209291908290030181600087803b15801561044b57600080fd5b505af115801561045f573d6000803e3d6000fd5b505050506040513d602081101561047557600080fd5b50515b151561048357600080fd5b600083600181111561049157fe5b1415610522578373ffffffffffffffffffffffffffffffffffffffff168260405180828051906020019080838360005b838110156104d95781810151838201526020016104c1565b50505050905090810190601f1680156105065780820380516001836020036101000a031916815260200191505b509150506000604051808303816000865af191505090506105ba565b600183600181111561053057fe5b14156105ba578373ffffffffffffffffffffffffffffffffffffffff168260405180828051906020019080838360005b83811015610578578181015183820152602001610560565b50505050905090810190601f1680156105a55780820380516001836020036101000a031916815260200191505b50915050600060405180830381855af4925050505b9392505050565b6105cc838383610388565b15156105d757600080fd5b505050565b600290565b60015474010000000000000000000000000000000000000000900460ff161561060957600080fd5b6001805474ff00000000000000000000000000000000000000001916740100000000000000000000000000000000000000001790556002805473ffffffffffffffffffffffffffffffffffffffff9384167fffffffffffffffffffffffff00000000000000000000000000000000000000009182161790915560038054929093169116179055565b6002543373ffffffffffffffffffffffffffffffffffffffff9081169116146106b957600080fd5b6003805482151574010000000000000000000000000000000000000000810274ff0000000000000000000000000000000000000000199092169190911790915560408051918252517f2165014523a6f4135deffed62d70149aad59b64de5aac51e3abbcbe2a83e2f7e9181900360200190a150565b60025473ffffffffffffffffffffffffffffffffffffffff1681565b60005473ffffffffffffffffffffffffffffffffffffffff1690565b60035474010000000000000000000000000000000000000000900460ff1681565b60015473ffffffffffffffffffffffffffffffffffffffff1690565b60035473ffffffffffffffffffffffffffffffffffffffff1681565b604080517f23b872dd00000000000000000000000000000000000000000000000000000000815273ffffffffffffffffffffffffffffffffffffffff8681166004830152308116602483015260448201869052915184928316916323b872dd9160648083019260209291908290030181600087803b15801561084057600080fd5b505af1158015610854573d6000803e3d6000fd5b505050506040513d602081101561086a57600080fd5b5051151561087757600080fd5b8273ffffffffffffffffffffffffffffffffffffffff168573ffffffffffffffffffffffffffffffffffffffff167fd65b48fd35864b3528d38e44760be5553248f89bf3ff6b06cca57817cc2650bf86856040518083815260200180602001828103825283818151815260200191508051906020019080838360005b8381101561090b5781810151838201526020016108f3565b50505050905090810190601f1680156109385780820380516001836020036101000a031916815260200191505b50935050505060405180910390a350505050505600a165627a7a723058204545d93557e458aac6ac281ed7a0d8ce05a69c9897eb26d4848f599924f46edd0029",
  "source": "/* \n\n  Proxy contract to hold access to assets on behalf of a user (e.g. ERC20 approve) and execute calls under particular conditions.\n\n*/\n\npragma solidity 0.4.23;\n\nimport \"./ProxyRegistry.sol\";\nimport \"../common/TokenRecipient.sol\";\nimport \"./proxy/OwnedUpgradeabilityStorage.sol\";\n\n/**\n * @title AuthenticatedProxy\n * @author Project Wyvern Developers\n */\ncontract AuthenticatedProxy is TokenRecipient, OwnedUpgradeabilityStorage {\n\n    /* Whether initialized. */\n    bool initialized = false;\n\n    /* Address which owns this proxy. */\n    address public user;\n\n    /* Associated registry with contract authentication information. */\n    ProxyRegistry public registry;\n\n    /* Whether access has been revoked. */\n    bool public revoked;\n\n    /* Delegate call could be used to atomically transfer multiple assets owned by the proxy contract with one order. */\n    enum HowToCall { Call, DelegateCall }\n\n    /* Event fired when the proxy access is revoked or unrevoked. */\n    event Revoked(bool revoked);\n\n    /**\n     * Initialize an AuthenticatedProxy\n     *\n     * @param addrUser Address of user on whose behalf this proxy will act\n     * @param addrRegistry Address of ProxyRegistry contract which will manage this proxy\n     */\n    function initialize (address addrUser, ProxyRegistry addrRegistry)\n        public\n    {\n        require(!initialized);\n        initialized = true;\n        user = addrUser;\n        registry = addrRegistry;\n    }\n\n    /**\n     * Set the revoked flag (allows a user to revoke ProxyRegistry access)\n     *\n     * @dev Can be called by the user only\n     * @param revoke Whether or not to revoke access\n     */\n    function setRevoke(bool revoke)\n        public\n    {\n        require(msg.sender == user);\n        revoked = revoke;\n        emit Revoked(revoke);\n    }\n\n    /**\n     * Execute a message call from the proxy contract\n     *\n     * @dev Can be called by the user, or by a contract authorized by the registry as long as the user has not revoked access\n     * @param dest Address to which the call will be sent\n     * @param howToCall Which kind of call to make\n     * @param calldata Calldata to send\n     * @return Result of the call (success or failure)\n     */\n    function proxy(address dest, HowToCall howToCall, bytes calldata)\n        public\n        returns (bool result)\n    {\n        require(msg.sender == user || (!revoked && registry.contracts(msg.sender)));\n        if (howToCall == HowToCall.Call) {\n            result = dest.call(calldata);\n        } else if (howToCall == HowToCall.DelegateCall) {\n            result = dest.delegatecall(calldata);\n        }\n        return result;\n    }\n\n    /**\n     * Execute a message call and assert success\n     * \n     * @dev Same functionality as `proxy`, just asserts the return value\n     * @param dest Address to which the call will be sent\n     * @param howToCall What kind of call to make\n     * @param calldata Calldata to send\n     */\n    function proxyAssert(address dest, HowToCall howToCall, bytes calldata)\n        public\n    {\n        require(proxy(dest, howToCall, calldata));\n    }\n\n}\n",
  "sourcePath": "/Users/joongyu/workspace/blocks/desktop/wyvern-js/src/wyvern-ethereum/contracts/registry/AuthenticatedProxy.sol",
  "compiler": {
    "name": "solc",
    "version": "0.4.23+commit.124ca40d.Emscripten.clang"
  },
  "schemaVersion": "3.4.9",
  "updatedAt": "2023-03-25T05:01:20.888Z",
  "devdoc": {
    "author": "Project Wyvern Developers",
    "methods": {
      "implementation()": {
        "details": "Tells the address of the current implementation",
        "return": "address of the current implementation"
      },
      "initialize(address,address)": {
        "params": {
          "addrRegistry": "Address of ProxyRegistry contract which will manage this proxy",
          "addrUser": "Address of user on whose behalf this proxy will act"
        }
      },
      "proxy(address,uint8,bytes)": {
        "details": "Can be called by the user, or by a contract authorized by the registry as long as the user has not revoked access",
        "params": {
          "calldata": "Calldata to send",
          "dest": "Address to which the call will be sent",
          "howToCall": "Which kind of call to make"
        },
        "return": "Result of the call (success or failure)"
      },
      "proxyAssert(address,uint8,bytes)": {
        "details": "Same functionality as `proxy`, just asserts the return value",
        "params": {
          "calldata": "Calldata to send",
          "dest": "Address to which the call will be sent",
          "howToCall": "What kind of call to make"
        }
      },
      "proxyType()": {
        "details": "Tells the proxy type (EIP 897)",
        "return": "Proxy type, 2 for forwarding proxy"
      },
      "receiveApproval(address,uint256,address,bytes)": {
        "details": "Receive tokens and generate a log event",
        "params": {
          "extraData": "Additional data to log",
          "from": "Address from which to transfer tokens",
          "token": "Address of token",
          "value": "Amount of tokens to transfer"
        }
      },
      "setRevoke(bool)": {
        "details": "Can be called by the user only",
        "params": {
          "revoke": "Whether or not to revoke access"
        }
      },
      "upgradeabilityOwner()": {
        "details": "Tells the address of the owner",
        "return": "the address of the owner"
      }
    },
    "title": "AuthenticatedProxy"
  },
  "userdoc": {
    "methods": {
      "initialize(address,address)": {
        "notice": "Initialize an AuthenticatedProxy"
      },
      "proxy(address,uint8,bytes)": {
        "notice": "Execute a message call from the proxy contract"
      },
      "proxyAssert(address,uint8,bytes)": {
        "notice": "Execute a message call and assert success "
      },
      "setRevoke(bool)": {
        "notice": "Set the revoked flag (allows a user to revoke ProxyRegistry access)"
      }
    }
  }
}