{
  "contractName": "OwnedUpgradeabilityStorage",
  "abi": [
    {
      "constant": true,
      "inputs": [],
      "name": "upgradeabilityOwner",
      "outputs": [
        {
          "name": "",
          "type": "address"
        }
      ],
      "payable": false,
      "stateMutability": "view",
      "type": "function"
    },
    {
      "constant": true,
      "inputs": [],
      "name": "implementation",
      "outputs": [
        {
          "name": "",
          "type": "address"
        }
      ],
      "payable": false,
      "stateMutability": "view",
      "type": "function"
    },
    {
      "constant": true,
      "inputs": [],
      "name": "proxyType",
      "outputs": [
        {
          "name": "proxyTypeId",
          "type": "uint256"
        }
      ],
      "payable": false,
      "stateMutability": "pure",
      "type": "function"
    }
  ],
  "bytecode": "0x608060405234801561001057600080fd5b5061013e806100206000396000f3006080604052600436106100565763ffffffff7c01000000000000000000000000000000000000000000000000000000006000350416634555d5c9811461005b5780635c60da1b146100825780636fde8202146100c0575b600080fd5b34801561006757600080fd5b506100706100d5565b60408051918252519081900360200190f35b34801561008e57600080fd5b506100976100da565b6040805173ffffffffffffffffffffffffffffffffffffffff9092168252519081900360200190f35b3480156100cc57600080fd5b506100976100f6565b600290565b60005473ffffffffffffffffffffffffffffffffffffffff1690565b60015473ffffffffffffffffffffffffffffffffffffffff16905600a165627a7a72305820c3db6c0b45b3f1956f712f34c8d3bda355472caba5c7de426c5dd5c83a44f53b0029",
  "source": "pragma solidity 0.4.23;\n\n/**\n * @title OwnedUpgradeabilityStorage\n * @dev This contract keeps track of the upgradeability owner\n */\ncontract OwnedUpgradeabilityStorage {\n\n  // Current implementation\n  address internal _implementation;\n\n  // Owner of the contract\n  address private _upgradeabilityOwner;\n\n  /**\n   * @dev Tells the address of the owner\n   * @return the address of the owner\n   */\n  function upgradeabilityOwner() public view returns (address) {\n    return _upgradeabilityOwner;\n  }\n\n  /**\n   * @dev Sets the address of the owner\n   */\n  function setUpgradeabilityOwner(address newUpgradeabilityOwner) internal {\n    _upgradeabilityOwner = newUpgradeabilityOwner;\n  }\n\n  /**\n  * @dev Tells the address of the current implementation\n  * @return address of the current implementation\n  */\n  function implementation() public view returns (address) {\n    return _implementation;\n  }\n\n  /**\n  * @dev Tells the proxy type (EIP 897)\n  * @return Proxy type, 2 for forwarding proxy\n  */\n  function proxyType() public pure returns (uint256 proxyTypeId) {\n    return 2;\n  }\n}\n",
  "sourcePath": "/Users/joongyu/workspace/blocks/desktop/wyvern-js/src/wyvern-ethereum/contracts/registry/proxy/OwnedUpgradeabilityStorage.sol",
  "compiler": {
    "name": "solc",
    "version": "0.4.23+commit.124ca40d.Emscripten.clang"
  },
  "schemaVersion": "3.4.9",
  "updatedAt": "2023-03-25T05:01:20.896Z",
  "devdoc": {
    "methods": {
      "implementation()": {
        "details": "Tells the address of the current implementation",
        "return": "address of the current implementation"
      },
      "proxyType()": {
        "details": "Tells the proxy type (EIP 897)",
        "return": "Proxy type, 2 for forwarding proxy"
      },
      "upgradeabilityOwner()": {
        "details": "Tells the address of the owner",
        "return": "the address of the owner"
      }
    },
    "title": "OwnedUpgradeabilityStorage"
  },
  "userdoc": {
    "methods": {}
  }
}