{
  "contractName": "TestDAO",
  "abi": [
    {
      "constant": true,
      "inputs": [
        {
          "name": "",
          "type": "uint256"
        }
      ],
      "name": "proposals",
      "outputs": [
        {
          "name": "recipient",
          "type": "address"
        },
        {
          "name": "amount",
          "type": "uint256"
        },
        {
          "name": "metadataHash",
          "type": "bytes"
        },
        {
          "name": "timeCreated",
          "type": "uint256"
        },
        {
          "name": "votingDeadline",
          "type": "uint256"
        },
        {
          "name": "finalized",
          "type": "bool"
        },
        {
          "name": "proposalPassed",
          "type": "bool"
        },
        {
          "name": "numberOfVotes",
          "type": "uint256"
        },
        {
          "name": "proposalHash",
          "type": "bytes32"
        }
      ],
      "payable": false,
      "stateMutability": "view",
      "type": "function"
    },
    {
      "constant": true,
      "inputs": [
        {
          "name": "",
          "type": "address"
        }
      ],
      "name": "delegatesByDelegator",
      "outputs": [
        {
          "name": "",
          "type": "address"
        }
      ],
      "payable": false,
      "stateMutability": "view",
      "type": "function"
    },
    {
      "constant": true,
      "inputs": [],
      "name": "name",
      "outputs": [
        {
          "name": "",
          "type": "string"
        }
      ],
      "payable": false,
      "stateMutability": "view",
      "type": "function"
    },
    {
      "constant": true,
      "inputs": [],
      "name": "REQUIRED_SHARES_TO_BE_BOARD_MEMBER",
      "outputs": [
        {
          "name": "",
          "type": "uint256"
        }
      ],
      "payable": false,
      "stateMutability": "view",
      "type": "function"
    },
    {
      "constant": true,
      "inputs": [
        {
          "name": "",
          "type": "address"
        }
      ],
      "name": "lockedDelegatingTokens",
      "outputs": [
        {
          "name": "",
          "type": "uint256"
        }
      ],
      "payable": false,
      "stateMutability": "view",
      "type": "function"
    },
    {
      "constant": true,
      "inputs": [
        {
          "name": "proposalNumber",
          "type": "uint256"
        }
      ],
      "name": "countVotes",
      "outputs": [
        {
          "name": "yea",
          "type": "uint256"
        },
        {
          "name": "nay",
          "type": "uint256"
        },
        {
          "name": "quorum",
          "type": "uint256"
        }
      ],
      "payable": false,
      "stateMutability": "view",
      "type": "function"
    },
    {
      "constant": false,
      "inputs": [
        {
          "name": "proposalNumber",
          "type": "uint256"
        },
        {
          "name": "transactionBytecode",
          "type": "bytes"
        }
      ],
      "name": "executeProposal",
      "outputs": [],
      "payable": false,
      "stateMutability": "nonpayable",
      "type": "function"
    },
    {
      "constant": true,
      "inputs": [],
      "name": "sharesTokenAddress",
      "outputs": [
        {
          "name": "",
          "type": "address"
        }
      ],
      "payable": false,
      "stateMutability": "view",
      "type": "function"
    },
    {
      "constant": true,
      "inputs": [
        {
          "name": "",
          "type": "address"
        }
      ],
      "name": "delegatedAmountsByDelegate",
      "outputs": [
        {
          "name": "",
          "type": "uint256"
        }
      ],
      "payable": false,
      "stateMutability": "view",
      "type": "function"
    },
    {
      "constant": true,
      "inputs": [],
      "name": "numProposals",
      "outputs": [
        {
          "name": "",
          "type": "uint256"
        }
      ],
      "payable": false,
      "stateMutability": "view",
      "type": "function"
    },
    {
      "constant": true,
      "inputs": [
        {
          "name": "proposalNumber",
          "type": "uint256"
        },
        {
          "name": "shareholder",
          "type": "address"
        }
      ],
      "name": "hasVoted",
      "outputs": [
        {
          "name": "",
          "type": "bool"
        }
      ],
      "payable": false,
      "stateMutability": "view",
      "type": "function"
    },
    {
      "constant": true,
      "inputs": [],
      "name": "TOKEN_DECIMALS",
      "outputs": [
        {
          "name": "",
          "type": "uint256"
        }
      ],
      "payable": false,
      "stateMutability": "view",
      "type": "function"
    },
    {
      "constant": false,
      "inputs": [
        {
          "name": "tokensToLock",
          "type": "uint256"
        },
        {
          "name": "delegate",
          "type": "address"
        }
      ],
      "name": "setDelegateAndLockTokens",
      "outputs": [],
      "payable": false,
      "stateMutability": "nonpayable",
      "type": "function"
    },
    {
      "constant": false,
      "inputs": [],
      "name": "clearDelegateAndUnlockTokens",
      "outputs": [
        {
          "name": "lockedTokens",
          "type": "uint256"
        }
      ],
      "payable": false,
      "stateMutability": "nonpayable",
      "type": "function"
    },
    {
      "constant": true,
      "inputs": [],
      "name": "debatingPeriodInMinutes",
      "outputs": [
        {
          "name": "",
          "type": "uint256"
        }
      ],
      "payable": false,
      "stateMutability": "view",
      "type": "function"
    },
    {
      "constant": false,
      "inputs": [
        {
          "name": "minimumSharesToPassAVote",
          "type": "uint256"
        },
        {
          "name": "minutesForDebate",
          "type": "uint256"
        },
        {
          "name": "sharesToBeBoardMember",
          "type": "uint256"
        }
      ],
      "name": "changeVotingRules",
      "outputs": [],
      "payable": false,
      "stateMutability": "nonpayable",
      "type": "function"
    },
    {
      "constant": true,
      "inputs": [],
      "name": "minimumQuorum",
      "outputs": [
        {
          "name": "",
          "type": "uint256"
        }
      ],
      "payable": false,
      "stateMutability": "view",
      "type": "function"
    },
    {
      "constant": false,
      "inputs": [
        {
          "name": "from",
          "type": "address"
        },
        {
          "name": "value",
          "type": "uint256"
        },
        {
          "name": "token",
          "type": "address"
        },
        {
          "name": "extraData",
          "type": "bytes"
        }
      ],
      "name": "receiveApproval",
      "outputs": [],
      "payable": false,
      "stateMutability": "nonpayable",
      "type": "function"
    },
    {
      "constant": true,
      "inputs": [],
      "name": "tokenLocker",
      "outputs": [
        {
          "name": "",
          "type": "address"
        }
      ],
      "payable": false,
      "stateMutability": "view",
      "type": "function"
    },
    {
      "constant": true,
      "inputs": [],
      "name": "requiredSharesToBeBoardMember",
      "outputs": [
        {
          "name": "",
          "type": "uint256"
        }
      ],
      "payable": false,
      "stateMutability": "view",
      "type": "function"
    },
    {
      "constant": false,
      "inputs": [
        {
          "name": "proposalNumber",
          "type": "uint256"
        },
        {
          "name": "supportsProposal",
          "type": "bool"
        }
      ],
      "name": "vote",
      "outputs": [
        {
          "name": "voteID",
          "type": "uint256"
        }
      ],
      "payable": false,
      "stateMutability": "nonpayable",
      "type": "function"
    },
    {
      "constant": false,
      "inputs": [
        {
          "name": "beneficiary",
          "type": "address"
        },
        {
          "name": "weiAmount",
          "type": "uint256"
        },
        {
          "name": "jobMetadataHash",
          "type": "bytes"
        },
        {
          "name": "transactionBytecode",
          "type": "bytes"
        }
      ],
      "name": "newProposal",
      "outputs": [
        {
          "name": "proposalID",
          "type": "uint256"
        }
      ],
      "payable": false,
      "stateMutability": "nonpayable",
      "type": "function"
    },
    {
      "constant": true,
      "inputs": [
        {
          "name": "proposalNumber",
          "type": "uint256"
        },
        {
          "name": "beneficiary",
          "type": "address"
        },
        {
          "name": "weiAmount",
          "type": "uint256"
        },
        {
          "name": "transactionBytecode",
          "type": "bytes"
        }
      ],
      "name": "checkProposalCode",
      "outputs": [
        {
          "name": "codeChecksOut",
          "type": "bool"
        }
      ],
      "payable": false,
      "stateMutability": "view",
      "type": "function"
    },
    {
      "constant": true,
      "inputs": [],
      "name": "totalLockedTokens",
      "outputs": [
        {
          "name": "",
          "type": "uint256"
        }
      ],
      "payable": false,
      "stateMutability": "view",
      "type": "function"
    },
    {
      "inputs": [
        {
          "name": "sharesAddress",
          "type": "address"
        }
      ],
      "payable": false,
      "stateMutability": "nonpayable",
      "type": "constructor"
    },
    {
      "payable": true,
      "stateMutability": "payable",
      "type": "fallback"
    },
    {
      "anonymous": false,
      "inputs": [
        {
          "indexed": false,
          "name": "proposalID",
          "type": "uint256"
        },
        {
          "indexed": false,
          "name": "recipient",
          "type": "address"
        },
        {
          "indexed": false,
          "name": "amount",
          "type": "uint256"
        },
        {
          "indexed": false,
          "name": "metadataHash",
          "type": "bytes"
        }
      ],
      "name": "ProposalAdded",
      "type": "event"
    },
    {
      "anonymous": false,
      "inputs": [
        {
          "indexed": false,
          "name": "proposalID",
          "type": "uint256"
        },
        {
          "indexed": false,
          "name": "position",
          "type": "bool"
        },
        {
          "indexed": false,
          "name": "voter",
          "type": "address"
        }
      ],
      "name": "Voted",
      "type": "event"
    },
    {
      "anonymous": false,
      "inputs": [
        {
          "indexed": false,
          "name": "proposalID",
          "type": "uint256"
        },
        {
          "indexed": false,
          "name": "yea",
          "type": "uint256"
        },
        {
          "indexed": false,
          "name": "nay",
          "type": "uint256"
        },
        {
          "indexed": false,
          "name": "quorum",
          "type": "uint256"
        },
        {
          "indexed": false,
          "name": "active",
          "type": "bool"
        }
      ],
      "name": "ProposalTallied",
      "type": "event"
    },
    {
      "anonymous": false,
      "inputs": [
        {
          "indexed": false,
          "name": "newMinimumQuorum",
          "type": "uint256"
        },
        {
          "indexed": false,
          "name": "newDebatingPeriodInMinutes",
          "type": "uint256"
        },
        {
          "indexed": false,
          "name": "newSharesTokenAddress",
          "type": "address"
        }
      ],
      "name": "ChangeOfRules",
      "type": "event"
    },
    {
      "anonymous": false,
      "inputs": [
        {
          "indexed": true,
          "name": "delegator",
          "type": "address"
        },
        {
          "indexed": false,
          "name": "numberOfTokens",
          "type": "uint256"
        },
        {
          "indexed": true,
          "name": "delegate",
          "type": "address"
        }
      ],
      "name": "TokensDelegated",
      "type": "event"
    },
    {
      "anonymous": false,
      "inputs": [
        {
          "indexed": true,
          "name": "delegator",
          "type": "address"
        },
        {
          "indexed": false,
          "name": "numberOfTokens",
          "type": "uint256"
        },
        {
          "indexed": true,
          "name": "delegate",
          "type": "address"
        }
      ],
      "name": "TokensUndelegated",
      "type": "event"
    },
    {
      "anonymous": false,
      "inputs": [
        {
          "indexed": true,
          "name": "sender",
          "type": "address"
        },
        {
          "indexed": false,
          "name": "amount",
          "type": "uint256"
        }
      ],
      "name": "ReceivedEther",
      "type": "event"
    },
    {
      "anonymous": false,
      "inputs": [
        {
          "indexed": true,
          "name": "from",
          "type": "address"
        },
        {
          "indexed": false,
          "name": "value",
          "type": "uint256"
        },
        {
          "indexed": true,
          "name": "token",
          "type": "address"
        },
        {
          "indexed": false,
          "name": "extraData",
          "type": "bytes"
        }
      ],
      "name": "ReceivedTokens",
      "type": "event"
    }
  ],
  "bytecode": "0x608060405234801561001057600080fd5b50604051602080611ff4833981016040525160048054600160a060020a031916600160a060020a038316179055686c6b935b8bbd400000600955683635c9adc5dea000006000908155600155806100656100b9565b600160a060020a03909116815260405190819003602001906000f080158015610092573d6000803e3d6000fd5b50600a8054600160a060020a031916600160a060020a0392909216919091179055506100c9565b60405161028c80611d6883390190565b611c90806100d86000396000f30060806040526004361061013d5763ffffffff7c0100000000000000000000000000000000000000000000000000000000600035041663013cf08b811461017e578063064cc7a71461025c57806306fdde031461029957806306fde1691461032357806313f47f241461034a5780631840f0ca1461036b578063237e9492146103a157806327ebcf0e146104015780633fb3ec2814610416578063400e394914610437578063438596321461044c5780635b7f415c146104845780635fa7df6b14610499578063645bd436146104bd57806369bd3436146104d25780636e676b69146104e75780638160f0b5146105055780638f4ffcb11461051a578063a80bf3e61461058a578063b94fa03f1461059f578063c9d27afe146105b4578063dbc45228146105d1578063eceb294514610678578063f5c476f9146106e7575b604080513481529051600160a060020a033316917fa419615bc8fda4c87663805ee2a3597a6d71c1d476911d9892f340d965bc7bf1919081900360200190a2005b34801561018a57600080fd5b506101966004356106fc565b60408051600160a060020a038b16815260208082018b9052606082018990526080820188905286151560a083015285151560c083015260e0820185905261010082018490526101209282018381528a519383019390935289519192916101408401918b019080838360005b83811015610219578181015183820152602001610201565b50505050905090810190601f1680156102465780820380516001836020036101000a031916815260200191505b509a505050505050505050505060405180910390f35b34801561026857600080fd5b5061027d600160a060020a03600435166107f1565b60408051600160a060020a039092168252519081900360200190f35b3480156102a557600080fd5b506102ae61080c565b6040805160208082528351818301528351919283929083019185019080838360005b838110156102e85781810151838201526020016102d0565b50505050905090810190601f1680156103155780820380516001836020036101000a031916815260200191505b509250505060405180910390f35b34801561032f57600080fd5b50610338610843565b60408051918252519081900360200190f35b34801561035657600080fd5b50610338600160a060020a0360043516610850565b34801561037757600080fd5b50610383600435610862565b60408051938452602084019290925282820152519081900360600190f35b3480156103ad57600080fd5b5060408051602060046024803582810135601f81018590048502860185019096528585526103ff9583359536956044949193909101919081908401838280828437509497506109d99650505050505050565b005b34801561040d57600080fd5b5061027d610c2c565b34801561042257600080fd5b50610338600160a060020a0360043516610c3b565b34801561044357600080fd5b50610338610c4d565b34801561045857600080fd5b50610470600435600160a060020a0360243516610c53565b604080519115158252519081900360200190f35b34801561049057600080fd5b50610338610c9b565b3480156104a557600080fd5b506103ff600435600160a060020a0360243516610ca0565b3480156104c957600080fd5b50610338610fb9565b3480156104de57600080fd5b50610338611232565b3480156104f357600080fd5b506103ff600435602435604435611238565b34801561051157600080fd5b506103386112c3565b34801561052657600080fd5b50604080516020601f6064356004818101359283018490048402850184019095528184526103ff94600160a060020a038135811695602480359660443590931695369560849492019181908401838280828437509497506112c99650505050505050565b34801561059657600080fd5b5061027d611430565b3480156105ab57600080fd5b5061033861143f565b3480156105c057600080fd5b506103386004356024351515611445565b3480156105dd57600080fd5b50604080516020600460443581810135601f8101849004840285018401909552848452610338948235600160a060020a031694602480359536959460649492019190819084018382808284375050604080516020601f89358b018035918201839004830284018301909452808352979a9998810197919650918201945092508291508401838280828437509497506116839650505050505050565b34801561068457600080fd5b50604080516020601f60643560048181013592830184900484028501840190955281845261047094803594600160a060020a0360248035919091169560443595369560849493019181908401838280828437509497506119699650505050505050565b3480156106f357600080fd5b50610338611a2b565b600280548290811061070a57fe5b6000918252602091829020600a91909102018054600180830154600280850180546040805161010096831615969096026000190190911692909204601f8101889004880285018801909252818452600160a060020a03909416965090949192918301828280156107bb5780601f10610790576101008083540402835291602001916107bb565b820191906000526020600020905b81548152906001019060200180831161079e57829003601f168201915b5050505060038301546004840154600585015460068601546007909601549495929491935060ff80821693610100909204169189565b600560205260009081526040902054600160a060020a031681565b60408051808201909152600881527f546573742044414f000000000000000000000000000000000000000000000000602082015281565b686c6b935b8bbd40000081565b60066020526000908152604090205481565b600080600080600080600060028881548110151561087c57fe5b90600052602060002090600a02019350600096506000955060009450600092505b60088401548310156109ce57600884018054849081106108b957fe5b6000918252602080832060048054939091018054604080517f70a08231000000000000000000000000000000000000000000000000000000008152600160a060020a036101009093048316948101949094525191975061098c959416936370a0823193602480850194919392918390030190829087803b15801561093c57600080fd5b505af1158015610950573d6000803e3d6000fd5b505050506040513d602081101561096657600080fd5b505183546101009004600160a060020a0316600090815260076020526040902054611a31565b90506109988582611a31565b825490955060ff16156109b6576109af8782611a31565b96506109c3565b6109c08682611a31565b95505b82600101925061089d565b505050509193909250565b60008060008030600160a060020a031633600160a060020a031614151515610a0057600080fd5b6002805487908110610a0e57fe5b90600052602060002090600a0201935083600401544210158015610a375750600584015460ff16155b8015610ad55750835460018501546040516c01000000000000000000000000600160a060020a039093169283028152601481018290528751889190603482019060208401908083835b60208310610a9f5780518252601f199092019160209182019101610a80565b5181516020939093036101000a6000190180199091169216919091179052604051920182900390912060078a0154149450505050505b1515610ae057600080fd5b610ae986610862565b6000549295509093509150811015610b0057600080fd5b60058401805460ff1916600117905581831115610bba5760058401805461ff001916610100179055835460018501546040518751600160a060020a03909316928891908190602084019080838360005b83811015610b68578181015183820152602001610b50565b50505050905090810190601f168015610b955780820380516001836020036101000a031916815260200191505b5091505060006040518083038185875af1925050501515610bb557600080fd5b610bc8565b60058401805461ff00191690555b600584015460408051888152602081018690528082018590526060810184905261010090920460ff1615156080830152517f748f0810c68633063bb13f3c71e10cd1889925b3721d6e567114d0632574a3969160a0908290030190a1505050505050565b600454600160a060020a031681565b60076020526000908152604090205481565b60035481565b600080600284815481101515610c6557fe5b60009182526020808320600160a060020a03969096168352600a919091029094016009019093525050604090205460ff16919050565b601281565b60048054604080517f70a08231000000000000000000000000000000000000000000000000000000008152600160a060020a03338116948201949094529051600093909216916370a082319160248082019260209290919082900301818787803b158015610d0d57600080fd5b505af1158015610d21573d6000803e3d6000fd5b505050506040513d6020811015610d3757600080fd5b505111610d4357600080fd5b600160a060020a033381166000908152600560205260409020541615610d6857600080fd5b30600160a060020a031633600160a060020a031614151515610d8957600080fd5b600160a060020a0333811660009081526006602090815260408083208690559284168252600790522054610dbd9083611a31565b600160a060020a038216600090815260076020526040902055600854610de39083611a31565b60085533600160a060020a039081166000818152600560209081526040808320805473ffffffffffffffffffffffffffffffffffffffff191687871617905560048054600a5483517f23b872dd00000000000000000000000000000000000000000000000000000000815292830196909652948616602482015260448101889052905193909416936323b872dd9360648083019491928390030190829087803b158015610e8f57600080fd5b505af1158015610ea3573d6000803e3d6000fd5b505050506040513d6020811015610eb957600080fd5b50511515610ec657600080fd5b60085460048054600a54604080517f70a08231000000000000000000000000000000000000000000000000000000008152600160a060020a0392831694810194909452519116916370a082319160248083019260209291908290030181600087803b158015610f3457600080fd5b505af1158015610f48573d6000803e3d6000fd5b505050506040513d6020811015610f5e57600080fd5b505114610f6a57600080fd5b80600160a060020a031633600160a060020a03167f57593c23286b632d1ba413b24ecae252f34f6b81fdff1022dc7ac0d78cde56b7846040518082815260200191505060405180910390a35050565b600160a060020a0333811660009081526005602052604081205490918291161515610fe357600080fd5b30600160a060020a031633600160a060020a03161415151561100457600080fd5b5050600160a060020a033381166000908152600560209081526040808320546006835281842080549085905594168084526007909252909120546110489083611a44565b600160a060020a03821660009081526007602052604090205560085461106e9083611a44565b600855600160a060020a033381166000818152600560209081526040808320805473ffffffffffffffffffffffffffffffffffffffff19169055600a5481517fa9059cbb000000000000000000000000000000000000000000000000000000008152600481019590955260248501889052905194169363a9059cbb93604480820194918390030190829087803b15801561110757600080fd5b505af115801561111b573d6000803e3d6000fd5b505050506040513d602081101561113157600080fd5b5051151561113e57600080fd5b60085460048054600a54604080517f70a08231000000000000000000000000000000000000000000000000000000008152600160a060020a0392831694810194909452519116916370a082319160248083019260209291908290030181600087803b1580156111ac57600080fd5b505af11580156111c0573d6000803e3d6000fd5b505050506040513d60208110156111d657600080fd5b5051146111e257600080fd5b80600160a060020a031633600160a060020a03167fccc924ef18d5fcabbf624302b6a02f9014c9b3371994eacc0cec2c107f2503e4846040518082815260200191505060405180910390a35b5090565b60015481565b30600160a060020a031633600160a060020a031614151561125857600080fd5b82151561126457600192505b6000839055600182905560098190556004546040805185815260208101859052600160a060020a0390921682820152517f68259880819f96f54b67d672fefc666565de06099c91b57a689a42073ba090c99181900360600190a1505050565b60005481565b604080517f23b872dd000000000000000000000000000000000000000000000000000000008152600160a060020a038681166004830152308116602483015260448201869052915184928316916323b872dd9160648083019260209291908290030181600087803b15801561133d57600080fd5b505af1158015611351573d6000803e3d6000fd5b505050506040513d602081101561136757600080fd5b5051151561137457600080fd5b82600160a060020a031685600160a060020a03167fd65b48fd35864b3528d38e44760be5553248f89bf3ff6b06cca57817cc2650bf86856040518083815260200180602001828103825283818151815260200191508051906020019080838360005b838110156113ee5781810151838201526020016113d6565b50505050905090810190601f16801561141b5780820380516001836020036101000a031916815260200191505b50935050505060405180910390a35050505050565b600a54600160a060020a031681565b60095481565b6000806000600460009054906101000a9004600160a060020a0316600160a060020a03166370a08231336040518263ffffffff167c01000000000000000000000000000000000000000000000000000000000281526004018082600160a060020a0316600160a060020a03168152602001915050602060405180830381600087803b1580156114d357600080fd5b505af11580156114e7573d6000803e3d6000fd5b505050506040513d60208110156114fd57600080fd5b50511161150957600080fd5b30600160a060020a031633600160a060020a03161415151561152a57600080fd5b600280548590811061153857fe5b60009182526020808320600160a060020a03331684526009600a90930201918201905260409091205490915060ff1615156001141561157657600080fd5b6008810180549061158a9060018301611a56565b91506040805190810160405280841515815260200133600160a060020a031681525081600801838154811015156115bd57fe5b600091825260208083208451920180549482015160ff19958616931515939093177fffffffffffffffffffffff0000000000000000000000000000000000000000ff16610100600160a060020a03948516021790553390911680835260098501825260409283902080549094166001908117909455928501600685015581518781528615159181019190915280820192909252517f86abfce99b7dd908bec0169288797f85049ec73cbe046ed9de818fab3a497ae0916060908290030190a15092915050565b60095460048054604080517f70a08231000000000000000000000000000000000000000000000000000000008152600160a060020a033381169482019490945290516000948594909316916370a0823191602480830192602092919082900301818887803b1580156116f457600080fd5b505af1158015611708573d6000803e3d6000fd5b505050506040513d602081101561171e57600080fd5b5051101561172b57600080fd5b30600160a060020a031633600160a060020a03161415151561174c57600080fd5b600a54600160a060020a038781169116141561176757600080fd5b60028054906117799060018301611a7f565b915060028281548110151561178a57fe5b6000918252602091829020600a9190910201805473ffffffffffffffffffffffffffffffffffffffff1916600160a060020a0389161781556001810187905585519092506117e091600284019190870190611aab565b508585846040518084600160a060020a0316600160a060020a03166c0100000000000000000000000002815260140183815260200182805190602001908083835b602083106118405780518252601f199092019160209182019101611821565b51815160209384036101000a60001901801990921691161790526040805192909401829003822060078a01554260038a01819055600154603c020160048a015560058901805461ffff19169055600060068a018190558a8352600160a060020a038f16838301529382018d90526080606083018181528d51918401919091528c517f06d6b095e85f5218421975622a7aee84a98b32aa7d174b90088357014003b43399508b98508f97508e96508d95939450909260a0850192860191908190849084905b8381101561191c578181015183820152602001611904565b50505050905090810190601f1680156119495780820380516001836020036101000a031916815260200191505b509550505050505060405180910390a16001820160035550949350505050565b60008060028681548110151561197b57fe5b90600052602060002090600a020190508484846040518084600160a060020a0316600160a060020a03166c0100000000000000000000000002815260140183815260200182805190602001908083835b602083106119ea5780518252601f1990920191602091820191016119cb565b5181516000196020949094036101000a9390930192831692191691909117905260405192018290039091206007870154149650505050505050949350505050565b60085481565b81810182811015611a3e57fe5b92915050565b600082821115611a5057fe5b50900390565b815481835581811115611a7a57600083815260209020611a7a918101908301611b25565b505050565b815481835581811115611a7a57600a0281600a028360005260206000209182019101611a7a9190611b64565b828054600181600116156101000203166002900490600052602060002090601f016020900481019282601f10611aec57805160ff1916838001178555611b19565b82800160010185558215611b19579182015b82811115611b19578251825591602001919060010190611afe565b5061122e929150611be5565b611b6191905b8082111561122e5780547fffffffffffffffffffffff000000000000000000000000000000000000000000168155600101611b2b565b90565b611b6191905b8082111561122e57805473ffffffffffffffffffffffffffffffffffffffff19168155600060018201819055611ba36002830182611bff565b6000600383018190556004830181905560058301805461ffff191690556006830181905560078301819055611bdc906008840190611c46565b50600a01611b6a565b611b6191905b8082111561122e5760008155600101611beb565b50805460018160011615610100020316600290046000825580601f10611c255750611c43565b601f016020900490600052602060002090810190611c439190611be5565b50565b5080546000825590600052602060002090810190611c439190611b255600a165627a7a723058204ae65018c7e48a961c56bc108e24091f839e21004186044b5685ba8f30f8ab980029608060405234801561001057600080fd5b5060405160208061028c833981016040525160008054600160a060020a03338116600160a060020a0319928316179092556001805492909316911617905561022f8061005d6000396000f3006080604052600436106100565763ffffffff7c01000000000000000000000000000000000000000000000000000000006000350416638da5cb5b811461005b578063a9059cbb14610099578063fc0c546a146100de575b600080fd5b34801561006757600080fd5b506100706100f3565b6040805173ffffffffffffffffffffffffffffffffffffffff9092168252519081900360200190f35b3480156100a557600080fd5b506100ca73ffffffffffffffffffffffffffffffffffffffff6004351660243561010f565b604080519115158252519081900360200190f35b3480156100ea57600080fd5b506100706101e7565b60005473ffffffffffffffffffffffffffffffffffffffff1681565b600080543373ffffffffffffffffffffffffffffffffffffffff90811691161461013857600080fd5b600154604080517fa9059cbb00000000000000000000000000000000000000000000000000000000815273ffffffffffffffffffffffffffffffffffffffff8681166004830152602482018690529151919092169163a9059cbb9160448083019260209291908290030181600087803b1580156101b457600080fd5b505af11580156101c8573d6000803e3d6000fd5b505050506040513d60208110156101de57600080fd5b50519392505050565b60015473ffffffffffffffffffffffffffffffffffffffff16815600a165627a7a723058203eb047cb76ca2c6ec4d351256cf5d47713f9f6df16612fb5e76e9927e5e3b4b70029",
  "source": "/*\n\n  << Test DAO (since we need a DAO controlled by a token that we can send around in tests) >>\n\n*/\n\npragma solidity 0.4.23;\n\nimport \"./dao/DelegatedShareholderAssociation.sol\";\n\n/**\n * @title TestDAO\n * @author Project Wyvern Developers\n */\ncontract TestDAO is DelegatedShareholderAssociation {\n\n    string public constant name = \"Test DAO\";\n\n    uint public constant TOKEN_DECIMALS                     = 18;\n    uint public constant REQUIRED_SHARES_TO_BE_BOARD_MEMBER = 2000 * (10 ** 18); // set to ~ 0.1% of supply\n\n    constructor (ERC20 sharesAddress) public {\n        sharesTokenAddress = sharesAddress;\n        requiredSharesToBeBoardMember = REQUIRED_SHARES_TO_BE_BOARD_MEMBER;\n        minimumQuorum = 1000 * (10 ** TOKEN_DECIMALS);\n        debatingPeriodInMinutes = 0;\n        tokenLocker = new TokenLocker(sharesAddress);\n    }\n\n}\n",
  "sourcePath": "/Users/joongyu/workspace/blocks/desktop/wyvern-js/src/wyvern-ethereum/contracts/TestDAO.sol",
  "compiler": {
    "name": "solc",
    "version": "0.4.23+commit.124ca40d.Emscripten.clang"
  },
  "schemaVersion": "3.4.9",
  "updatedAt": "2023-03-25T05:01:20.798Z",
  "devdoc": {
    "author": "Project Wyvern Developers",
    "methods": {
      "changeVotingRules(uint256,uint256,uint256)": {
        "params": {
          "minimumSharesToPassAVote": "proposal can vote only if the sum of shares held by all voters exceed this number",
          "minutesForDebate": "the minimum amount of delay between when a proposal is made and when it can be executed",
          "sharesToBeBoardMember": "the minimum number of shares required to create proposals"
        }
      },
      "checkProposalCode(uint256,address,uint256,bytes)": {
        "params": {
          "beneficiary": "who to send the ether to",
          "proposalNumber": "ID number of the proposal to query",
          "transactionBytecode": "bytecode of transaction",
          "weiAmount": "amount of ether to send"
        }
      },
      "clearDelegateAndUnlockTokens()": {
        "details": "Can only be called by a sending address currently delegating tokens, will transfer all locked tokens back to the sender",
        "return": "The number of tokens previously locked, now released"
      },
      "countVotes(uint256)": {
        "params": {
          "proposalNumber": "proposal number"
        },
        "return": "yea votes, nay votes, quorum (total votes)"
      },
      "executeProposal(uint256,bytes)": {
        "params": {
          "proposalNumber": "proposal number",
          "transactionBytecode": "optional: if the transaction contained a bytecode, you need to send it"
        }
      },
      "hasVoted(uint256,address)": {
        "params": {
          "proposalNumber": "proposal number",
          "shareholder": "address to query"
        },
        "return": "whether or not the specified address has cast a vote on the specified proposal"
      },
      "newProposal(address,uint256,bytes,bytes)": {
        "details": "Submit proposal for the DAO to execute a particular transaction. Submitter should check that the `beneficiary` account exists, unless the intent is to burn Ether.",
        "params": {
          "beneficiary": "who to send the ether to",
          "jobMetadataHash": "Hash of job metadata (IPFS)",
          "transactionBytecode": "bytecode of transaction",
          "weiAmount": "amount of ether to send, in wei"
        }
      },
      "receiveApproval(address,uint256,address,bytes)": {
        "details": "Receive tokens and generate a log event",
        "params": {
          "extraData": "Additional data to log",
          "from": "Address from which to transfer tokens",
          "token": "Address of token",
          "value": "Amount of tokens to transfer"
        }
      },
      "setDelegateAndLockTokens(uint256,address)": {
        "details": "An address holding tokens (shares) may only delegate some portion of their vote to one delegate at any one time",
        "params": {
          "delegate": "the address to which votes equal to the number of tokens locked will be delegated",
          "tokensToLock": "number of tokens to be locked (sending address must have at least this many tokens)"
        }
      },
      "vote(uint256,bool)": {
        "details": "Vote in favor or against an existing proposal. Voter should check that the proposal destination account exists, unless the intent is to burn Ether.",
        "params": {
          "proposalNumber": "number of proposal",
          "supportsProposal": "either in favor or against it"
        }
      }
    },
    "title": "TestDAO"
  },
  "userdoc": {
    "methods": {
      "changeVotingRules(uint256,uint256,uint256)": {
        "notice": "Change voting rules     * Make so that proposals need tobe discussed for at least `minutesForDebate/60` hours and all voters combined must own more than `minimumSharesToPassAVote` shares of token `sharesAddress` to be executed and a shareholder needs `sharesToBeBoardMember` shares to create a transaction proposal"
      },
      "checkProposalCode(uint256,address,uint256,bytes)": {
        "notice": "Check if a proposal code matches"
      },
      "clearDelegateAndUnlockTokens()": {
        "notice": "Undelegate all delegated tokens Clear the delegate address for all tokens delegated by the sending address, unlocking the locked tokens."
      },
      "countVotes(uint256)": {
        "notice": "Count the votes, including delegated votes, in support of, against, and in total for a particular proposal"
      },
      "executeProposal(uint256,bytes)": {
        "notice": "Finish vote     * Count the votes proposal #`proposalNumber` and execute it if approved"
      },
      "hasVoted(uint256,address)": {
        "notice": "Return whether a particular shareholder has voted on a particular proposal (convenience function)"
      },
      "newProposal(address,uint256,bytes,bytes)": {
        "notice": "Add Proposal     * Propose to send `weiAmount / 1e18` ether to `beneficiary` for `jobMetadataHash`. `transactionBytecode ? Contains : Does not contain` code."
      },
      "setDelegateAndLockTokens(uint256,address)": {
        "notice": "Delegate an amount of tokens Set the delegate address for a specified number of tokens belonging to the sending address, locking the tokens."
      },
      "vote(uint256,bool)": {
        "notice": "Log a vote for a proposal     * Vote `supportsProposal? in support of : against` proposal #`proposalNumber`"
      }
    }
  }
}