{
  "contractName": "WyvernDAOProxy",
  "abi": [
    {
      "constant": false,
      "inputs": [],
      "name": "renounceOwnership",
      "outputs": [],
      "payable": false,
      "stateMutability": "nonpayable",
      "type": "function"
    },
    {
      "constant": true,
      "inputs": [],
      "name": "owner",
      "outputs": [
        {
          "name": "",
          "type": "address"
        }
      ],
      "payable": false,
      "stateMutability": "view",
      "type": "function"
    },
    {
      "constant": false,
      "inputs": [
        {
          "name": "from",
          "type": "address"
        },
        {
          "name": "value",
          "type": "uint256"
        },
        {
          "name": "token",
          "type": "address"
        },
        {
          "name": "extraData",
          "type": "bytes"
        }
      ],
      "name": "receiveApproval",
      "outputs": [],
      "payable": false,
      "stateMutability": "nonpayable",
      "type": "function"
    },
    {
      "constant": false,
      "inputs": [
        {
          "name": "dest",
          "type": "address"
        },
        {
          "name": "calldata",
          "type": "bytes"
        }
      ],
      "name": "delegateProxyAssert",
      "outputs": [],
      "payable": false,
      "stateMutability": "nonpayable",
      "type": "function"
    },
    {
      "constant": false,
      "inputs": [
        {
          "name": "_newOwner",
          "type": "address"
        }
      ],
      "name": "transferOwnership",
      "outputs": [],
      "payable": false,
      "stateMutability": "nonpayable",
      "type": "function"
    },
    {
      "constant": false,
      "inputs": [
        {
          "name": "dest",
          "type": "address"
        },
        {
          "name": "calldata",
          "type": "bytes"
        }
      ],
      "name": "delegateProxy",
      "outputs": [
        {
          "name": "result",
          "type": "bool"
        }
      ],
      "payable": false,
      "stateMutability": "nonpayable",
      "type": "function"
    },
    {
      "inputs": [],
      "payable": false,
      "stateMutability": "nonpayable",
      "type": "constructor"
    },
    {
      "payable": true,
      "stateMutability": "payable",
      "type": "fallback"
    },
    {
      "anonymous": false,
      "inputs": [
        {
          "indexed": true,
          "name": "previousOwner",
          "type": "address"
        }
      ],
      "name": "OwnershipRenounced",
      "type": "event"
    },
    {
      "anonymous": false,
      "inputs": [
        {
          "indexed": true,
          "name": "previousOwner",
          "type": "address"
        },
        {
          "indexed": true,
          "name": "newOwner",
          "type": "address"
        }
      ],
      "name": "OwnershipTransferred",
      "type": "event"
    },
    {
      "anonymous": false,
      "inputs": [
        {
          "indexed": true,
          "name": "sender",
          "type": "address"
        },
        {
          "indexed": false,
          "name": "amount",
          "type": "uint256"
        }
      ],
      "name": "ReceivedEther",
      "type": "event"
    },
    {
      "anonymous": false,
      "inputs": [
        {
          "indexed": true,
          "name": "from",
          "type": "address"
        },
        {
          "indexed": false,
          "name": "value",
          "type": "uint256"
        },
        {
          "indexed": true,
          "name": "token",
          "type": "address"
        },
        {
          "indexed": false,
          "name": "extraData",
          "type": "bytes"
        }
      ],
      "name": "ReceivedTokens",
      "type": "event"
    }
  ],
  "bytecode": "0x608060405234801561001057600080fd5b5060008054600160a060020a033316600160a060020a031991821681179091161790556106c3806100426000396000f3006080604052600436106100775763ffffffff7c0100000000000000000000000000000000000000000000000000000000600035041663715018a681146100c55780638da5cb5b146100dc5780638f4ffcb11461011a578063a018f2b214610197578063f2fde38b1461020b578063fc74dadd14610239575b60408051348152905173ffffffffffffffffffffffffffffffffffffffff3316917fa419615bc8fda4c87663805ee2a3597a6d71c1d476911d9892f340d965bc7bf1919081900360200190a2005b3480156100d157600080fd5b506100da6102c1565b005b3480156100e857600080fd5b506100f161034b565b6040805173ffffffffffffffffffffffffffffffffffffffff9092168252519081900360200190f35b34801561012657600080fd5b50604080516020601f6064356004818101359283018490048402850184019095528184526100da9473ffffffffffffffffffffffffffffffffffffffff8135811695602480359660443590931695369560849492019181908401838280828437509497506103679650505050505050565b3480156101a357600080fd5b5060408051602060046024803582810135601f81018590048502860185019096528585526100da95833573ffffffffffffffffffffffffffffffffffffffff169536956044949193909101919081908401838280828437509497506104f59650505050505050565b34801561021757600080fd5b506100da73ffffffffffffffffffffffffffffffffffffffff6004351661050e565b34801561024557600080fd5b5060408051602060046024803582810135601f81018590048502860185019096528585526102ad95833573ffffffffffffffffffffffffffffffffffffffff169536956044949193909101919081908401838280828437509497506105429650505050505050565b604080519115158252519081900360200190f35b6000543373ffffffffffffffffffffffffffffffffffffffff9081169116146102e957600080fd5b6000805460405173ffffffffffffffffffffffffffffffffffffffff909116917ff8df31144d9c2f0f6b59d69b8b98abd5459d07f2742c4df920b25aae33c6482091a26000805473ffffffffffffffffffffffffffffffffffffffff19169055565b60005473ffffffffffffffffffffffffffffffffffffffff1681565b604080517f23b872dd00000000000000000000000000000000000000000000000000000000815273ffffffffffffffffffffffffffffffffffffffff8681166004830152308116602483015260448201869052915184928316916323b872dd9160648083019260209291908290030181600087803b1580156103e857600080fd5b505af11580156103fc573d6000803e3d6000fd5b505050506040513d602081101561041257600080fd5b5051151561041f57600080fd5b8273ffffffffffffffffffffffffffffffffffffffff168573ffffffffffffffffffffffffffffffffffffffff167fd65b48fd35864b3528d38e44760be5553248f89bf3ff6b06cca57817cc2650bf86856040518083815260200180602001828103825283818151815260200191508051906020019080838360005b838110156104b357818101518382015260200161049b565b50505050905090810190601f1680156104e05780820380516001836020036101000a031916815260200191505b50935050505060405180910390a35050505050565b6104ff8282610542565b151561050a57600080fd5b5050565b6000543373ffffffffffffffffffffffffffffffffffffffff90811691161461053657600080fd5b61053f816105f3565b50565b600080543373ffffffffffffffffffffffffffffffffffffffff90811691161461056b57600080fd5b8273ffffffffffffffffffffffffffffffffffffffff168260405180828051906020019080838360005b838110156105ad578181015183820152602001610595565b50505050905090810190601f1680156105da5780820380516001836020036101000a031916815260200191505b50915050600060405180830381855af495945050505050565b73ffffffffffffffffffffffffffffffffffffffff8116151561061557600080fd5b6000805460405173ffffffffffffffffffffffffffffffffffffffff808516939216917f8be0079c531659141344cd1fd0a4f28419497f9722a3daafe3b4186f6b6457e091a36000805473ffffffffffffffffffffffffffffffffffffffff191673ffffffffffffffffffffffffffffffffffffffff929092169190911790555600a165627a7a72305820f9e9a04b3c0852f681da5a0efe6d780070fae9cd5821131eaff1f8c4664d10a80029",
  "source": "/*\n\n  << Project Wyvern DAO Proxy >>\n\n*/\n\npragma solidity 0.4.23;\n\nimport \"./dao/DelegateProxy.sol\";\n\n/**\n * @title WyvernDAOProxy\n * @author Project Wyvern Developers\n */\ncontract WyvernDAOProxy is DelegateProxy {\n\n    constructor ()\n        public\n    {\n        owner = msg.sender;\n    }\n\n}\n",
  "sourcePath": "/Users/joongyu/workspace/blocks/desktop/wyvern-js/src/wyvern-ethereum/contracts/WyvernDAOProxy.sol",
  "compiler": {
    "name": "solc",
    "version": "0.4.23+commit.124ca40d.Emscripten.clang"
  },
  "schemaVersion": "3.4.9",
  "updatedAt": "2023-03-25T05:01:20.807Z",
  "devdoc": {
    "author": "Project Wyvern Developers",
    "methods": {
      "delegateProxy(address,bytes)": {
        "details": "Owner only",
        "params": {
          "calldata": "Calldata to send",
          "dest": "Address to which the call will be sent"
        },
        "return": "Result of the delegatecall (success or failure)"
      },
      "delegateProxyAssert(address,bytes)": {
        "details": "Same functionality as `delegateProxy`, just asserts the return value",
        "params": {
          "calldata": "Calldata to send",
          "dest": "Address to which the call will be sent"
        }
      },
      "receiveApproval(address,uint256,address,bytes)": {
        "details": "Receive tokens and generate a log event",
        "params": {
          "extraData": "Additional data to log",
          "from": "Address from which to transfer tokens",
          "token": "Address of token",
          "value": "Amount of tokens to transfer"
        }
      },
      "renounceOwnership()": {
        "details": "Allows the current owner to relinquish control of the contract."
      },
      "transferOwnership(address)": {
        "details": "Allows the current owner to transfer control of the contract to a newOwner.",
        "params": {
          "_newOwner": "The address to transfer ownership to."
        }
      }
    },
    "title": "WyvernDAOProxy"
  },
  "userdoc": {
    "methods": {
      "delegateProxy(address,bytes)": {
        "notice": "Execute a DELEGATECALL from the proxy contract"
      },
      "delegateProxyAssert(address,bytes)": {
        "notice": "Execute a DELEGATECALL and assert success"
      }
    }
  }
}