{
  "contractName": "WyvernExchange",
  "abi": [
    {
      "constant": true,
      "inputs": [],
      "name": "name",
      "outputs": [
        {
          "name": "",
          "type": "string"
        }
      ],
      "payable": false,
      "stateMutability": "view",
      "type": "function"
    },
    {
      "constant": true,
      "inputs": [],
      "name": "tokenTransferProxy",
      "outputs": [
        {
          "name": "",
          "type": "address"
        }
      ],
      "payable": false,
      "stateMutability": "view",
      "type": "function"
    },
    {
      "constant": true,
      "inputs": [
        {
          "name": "target",
          "type": "address"
        },
        {
          "name": "calldata",
          "type": "bytes"
        },
        {
          "name": "extradata",
          "type": "bytes"
        }
      ],
      "name": "staticCall",
      "outputs": [
        {
          "name": "result",
          "type": "bool"
        }
      ],
      "payable": false,
      "stateMutability": "view",
      "type": "function"
    },
    {
      "constant": false,
      "inputs": [
        {
          "name": "newMinimumMakerProtocolFee",
          "type": "uint256"
        }
      ],
      "name": "changeMinimumMakerProtocolFee",
      "outputs": [],
      "payable": false,
      "stateMutability": "nonpayable",
      "type": "function"
    },
    {
      "constant": false,
      "inputs": [
        {
          "name": "newMinimumTakerProtocolFee",
          "type": "uint256"
        }
      ],
      "name": "changeMinimumTakerProtocolFee",
      "outputs": [],
      "payable": false,
      "stateMutability": "nonpayable",
      "type": "function"
    },
    {
      "constant": true,
      "inputs": [
        {
          "name": "array",
          "type": "bytes"
        },
        {
          "name": "desired",
          "type": "bytes"
        },
        {
          "name": "mask",
          "type": "bytes"
        }
      ],
      "name": "guardedArrayReplace",
      "outputs": [
        {
          "name": "",
          "type": "bytes"
        }
      ],
      "payable": false,
      "stateMutability": "pure",
      "type": "function"
    },
    {
      "constant": true,
      "inputs": [],
      "name": "minimumTakerProtocolFee",
      "outputs": [
        {
          "name": "",
          "type": "uint256"
        }
      ],
      "payable": false,
      "stateMutability": "view",
      "type": "function"
    },
    {
      "constant": true,
      "inputs": [],
      "name": "codename",
      "outputs": [
        {
          "name": "",
          "type": "string"
        }
      ],
      "payable": false,
      "stateMutability": "view",
      "type": "function"
    },
    {
      "constant": true,
      "inputs": [
        {
          "name": "addr",
          "type": "address"
        }
      ],
      "name": "testCopyAddress",
      "outputs": [
        {
          "name": "",
          "type": "bytes"
        }
      ],
      "payable": false,
      "stateMutability": "pure",
      "type": "function"
    },
    {
      "constant": true,
      "inputs": [
        {
          "name": "arrToCopy",
          "type": "bytes"
        }
      ],
      "name": "testCopy",
      "outputs": [
        {
          "name": "",
          "type": "bytes"
        }
      ],
      "payable": false,
      "stateMutability": "pure",
      "type": "function"
    },
    {
      "constant": true,
      "inputs": [
        {
          "name": "addrs",
          "type": "address[7]"
        },
        {
          "name": "uints",
          "type": "uint256[9]"
        },
        {
          "name": "feeMethod",
          "type": "uint8"
        },
        {
          "name": "side",
          "type": "uint8"
        },
        {
          "name": "saleKind",
          "type": "uint8"
        },
        {
          "name": "howToCall",
          "type": "uint8"
        },
        {
          "name": "calldata",
          "type": "bytes"
        },
        {
          "name": "replacementPattern",
          "type": "bytes"
        },
        {
          "name": "staticExtradata",
          "type": "bytes"
        }
      ],
      "name": "calculateCurrentPrice_",
      "outputs": [
        {
          "name": "",
          "type": "uint256"
        }
      ],
      "payable": false,
      "stateMutability": "view",
      "type": "function"
    },
    {
      "constant": false,
      "inputs": [
        {
          "name": "newProtocolFeeRecipient",
          "type": "address"
        }
      ],
      "name": "changeProtocolFeeRecipient",
      "outputs": [],
      "payable": false,
      "stateMutability": "nonpayable",
      "type": "function"
    },
    {
      "constant": true,
      "inputs": [],
      "name": "version",
      "outputs": [
        {
          "name": "",
          "type": "string"
        }
      ],
      "payable": false,
      "stateMutability": "view",
      "type": "function"
    },
    {
      "constant": true,
      "inputs": [
        {
          "name": "buyCalldata",
          "type": "bytes"
        },
        {
          "name": "buyReplacementPattern",
          "type": "bytes"
        },
        {
          "name": "sellCalldata",
          "type": "bytes"
        },
        {
          "name": "sellReplacementPattern",
          "type": "bytes"
        }
      ],
      "name": "orderCalldataCanMatch",
      "outputs": [
        {
          "name": "",
          "type": "bool"
        }
      ],
      "payable": false,
      "stateMutability": "pure",
      "type": "function"
    },
    {
      "constant": true,
      "inputs": [
        {
          "name": "addrs",
          "type": "address[7]"
        },
        {
          "name": "uints",
          "type": "uint256[9]"
        },
        {
          "name": "feeMethod",
          "type": "uint8"
        },
        {
          "name": "side",
          "type": "uint8"
        },
        {
          "name": "saleKind",
          "type": "uint8"
        },
        {
          "name": "howToCall",
          "type": "uint8"
        },
        {
          "name": "calldata",
          "type": "bytes"
        },
        {
          "name": "replacementPattern",
          "type": "bytes"
        },
        {
          "name": "staticExtradata",
          "type": "bytes"
        },
        {
          "name": "v",
          "type": "uint8"
        },
        {
          "name": "r",
          "type": "bytes32"
        },
        {
          "name": "s",
          "type": "bytes32"
        }
      ],
      "name": "validateOrder_",
      "outputs": [
        {
          "name": "",
          "type": "bool"
        }
      ],
      "payable": false,
      "stateMutability": "view",
      "type": "function"
    },
    {
      "constant": true,
      "inputs": [
        {
          "name": "side",
          "type": "uint8"
        },
        {
          "name": "saleKind",
          "type": "uint8"
        },
        {
          "name": "basePrice",
          "type": "uint256"
        },
        {
          "name": "extra",
          "type": "uint256"
        },
        {
          "name": "listingTime",
          "type": "uint256"
        },
        {
          "name": "expirationTime",
          "type": "uint256"
        }
      ],
      "name": "calculateFinalPrice",
      "outputs": [
        {
          "name": "",
          "type": "uint256"
        }
      ],
      "payable": false,
      "stateMutability": "view",
      "type": "function"
    },
    {
      "constant": true,
      "inputs": [],
      "name": "protocolFeeRecipient",
      "outputs": [
        {
          "name": "",
          "type": "address"
        }
      ],
      "payable": false,
      "stateMutability": "view",
      "type": "function"
    },
    {
      "constant": false,
      "inputs": [],
      "name": "renounceOwnership",
      "outputs": [],
      "payable": false,
      "stateMutability": "nonpayable",
      "type": "function"
    },
    {
      "constant": true,
      "inputs": [
        {
          "name": "addrs",
          "type": "address[7]"
        },
        {
          "name": "uints",
          "type": "uint256[9]"
        },
        {
          "name": "feeMethod",
          "type": "uint8"
        },
        {
          "name": "side",
          "type": "uint8"
        },
        {
          "name": "saleKind",
          "type": "uint8"
        },
        {
          "name": "howToCall",
          "type": "uint8"
        },
        {
          "name": "calldata",
          "type": "bytes"
        },
        {
          "name": "replacementPattern",
          "type": "bytes"
        },
        {
          "name": "staticExtradata",
          "type": "bytes"
        }
      ],
      "name": "hashOrder_",
      "outputs": [
        {
          "name": "",
          "type": "bytes32"
        }
      ],
      "payable": false,
      "stateMutability": "pure",
      "type": "function"
    },
    {
      "constant": true,
      "inputs": [
        {
          "name": "addrs",
          "type": "address[14]"
        },
        {
          "name": "uints",
          "type": "uint256[18]"
        },
        {
          "name": "feeMethodsSidesKindsHowToCalls",
          "type": "uint8[8]"
        },
        {
          "name": "calldataBuy",
          "type": "bytes"
        },
        {
          "name": "calldataSell",
          "type": "bytes"
        },
        {
          "name": "replacementPatternBuy",
          "type": "bytes"
        },
        {
          "name": "replacementPatternSell",
          "type": "bytes"
        },
        {
          "name": "staticExtradataBuy",
          "type": "bytes"
        },
        {
          "name": "staticExtradataSell",
          "type": "bytes"
        }
      ],
      "name": "ordersCanMatch_",
      "outputs": [
        {
          "name": "",
          "type": "bool"
        }
      ],
      "payable": false,
      "stateMutability": "view",
      "type": "function"
    },
    {
      "constant": false,
      "inputs": [
        {
          "name": "addrs",
          "type": "address[7]"
        },
        {
          "name": "uints",
          "type": "uint256[9]"
        },
        {
          "name": "feeMethod",
          "type": "uint8"
        },
        {
          "name": "side",
          "type": "uint8"
        },
        {
          "name": "saleKind",
          "type": "uint8"
        },
        {
          "name": "howToCall",
          "type": "uint8"
        },
        {
          "name": "calldata",
          "type": "bytes"
        },
        {
          "name": "replacementPattern",
          "type": "bytes"
        },
        {
          "name": "staticExtradata",
          "type": "bytes"
        },
        {
          "name": "orderbookInclusionDesired",
          "type": "bool"
        }
      ],
      "name": "approveOrder_",
      "outputs": [],
      "payable": false,
      "stateMutability": "nonpayable",
      "type": "function"
    },
    {
      "constant": true,
      "inputs": [],
      "name": "registry",
      "outputs": [
        {
          "name": "",
          "type": "address"
        }
      ],
      "payable": false,
      "stateMutability": "view",
      "type": "function"
    },
    {
      "constant": true,
      "inputs": [],
      "name": "minimumMakerProtocolFee",
      "outputs": [
        {
          "name": "",
          "type": "uint256"
        }
      ],
      "payable": false,
      "stateMutability": "view",
      "type": "function"
    },
    {
      "constant": true,
      "inputs": [
        {
          "name": "addrs",
          "type": "address[7]"
        },
        {
          "name": "uints",
          "type": "uint256[9]"
        },
        {
          "name": "feeMethod",
          "type": "uint8"
        },
        {
          "name": "side",
          "type": "uint8"
        },
        {
          "name": "saleKind",
          "type": "uint8"
        },
        {
          "name": "howToCall",
          "type": "uint8"
        },
        {
          "name": "calldata",
          "type": "bytes"
        },
        {
          "name": "replacementPattern",
          "type": "bytes"
        },
        {
          "name": "staticExtradata",
          "type": "bytes"
        }
      ],
      "name": "hashToSign_",
      "outputs": [
        {
          "name": "",
          "type": "bytes32"
        }
      ],
      "payable": false,
      "stateMutability": "pure",
      "type": "function"
    },
    {
      "constant": true,
      "inputs": [
        {
          "name": "",
          "type": "bytes32"
        }
      ],
      "name": "cancelledOrFinalized",
      "outputs": [
        {
          "name": "",
          "type": "bool"
        }
      ],
      "payable": false,
      "stateMutability": "view",
      "type": "function"
    },
    {
      "constant": true,
      "inputs": [],
      "name": "owner",
      "outputs": [
        {
          "name": "",
          "type": "address"
        }
      ],
      "payable": false,
      "stateMutability": "view",
      "type": "function"
    },
    {
      "constant": true,
      "inputs": [],
      "name": "exchangeToken",
      "outputs": [
        {
          "name": "",
          "type": "address"
        }
      ],
      "payable": false,
      "stateMutability": "view",
      "type": "function"
    },
    {
      "constant": false,
      "inputs": [
        {
          "name": "addrs",
          "type": "address[7]"
        },
        {
          "name": "uints",
          "type": "uint256[9]"
        },
        {
          "name": "feeMethod",
          "type": "uint8"
        },
        {
          "name": "side",
          "type": "uint8"
        },
        {
          "name": "saleKind",
          "type": "uint8"
        },
        {
          "name": "howToCall",
          "type": "uint8"
        },
        {
          "name": "calldata",
          "type": "bytes"
        },
        {
          "name": "replacementPattern",
          "type": "bytes"
        },
        {
          "name": "staticExtradata",
          "type": "bytes"
        },
        {
          "name": "v",
          "type": "uint8"
        },
        {
          "name": "r",
          "type": "bytes32"
        },
        {
          "name": "s",
          "type": "bytes32"
        }
      ],
      "name": "cancelOrder_",
      "outputs": [],
      "payable": false,
      "stateMutability": "nonpayable",
      "type": "function"
    },
    {
      "constant": false,
      "inputs": [
        {
          "name": "addrs",
          "type": "address[14]"
        },
        {
          "name": "uints",
          "type": "uint256[18]"
        },
        {
          "name": "feeMethodsSidesKindsHowToCalls",
          "type": "uint8[8]"
        },
        {
          "name": "calldataBuy",
          "type": "bytes"
        },
        {
          "name": "calldataSell",
          "type": "bytes"
        },
        {
          "name": "replacementPatternBuy",
          "type": "bytes"
        },
        {
          "name": "replacementPatternSell",
          "type": "bytes"
        },
        {
          "name": "staticExtradataBuy",
          "type": "bytes"
        },
        {
          "name": "staticExtradataSell",
          "type": "bytes"
        },
        {
          "name": "vs",
          "type": "uint8[2]"
        },
        {
          "name": "rssMetadata",
          "type": "bytes32[5]"
        }
      ],
      "name": "atomicMatch_",
      "outputs": [],
      "payable": true,
      "stateMutability": "payable",
      "type": "function"
    },
    {
      "constant": true,
      "inputs": [
        {
          "name": "addrs",
          "type": "address[7]"
        },
        {
          "name": "uints",
          "type": "uint256[9]"
        },
        {
          "name": "feeMethod",
          "type": "uint8"
        },
        {
          "name": "side",
          "type": "uint8"
        },
        {
          "name": "saleKind",
          "type": "uint8"
        },
        {
          "name": "howToCall",
          "type": "uint8"
        },
        {
          "name": "calldata",
          "type": "bytes"
        },
        {
          "name": "replacementPattern",
          "type": "bytes"
        },
        {
          "name": "staticExtradata",
          "type": "bytes"
        }
      ],
      "name": "validateOrderParameters_",
      "outputs": [
        {
          "name": "",
          "type": "bool"
        }
      ],
      "payable": false,
      "stateMutability": "view",
      "type": "function"
    },
    {
      "constant": true,
      "inputs": [],
      "name": "INVERSE_BASIS_POINT",
      "outputs": [
        {
          "name": "",
          "type": "uint256"
        }
      ],
      "payable": false,
      "stateMutability": "view",
      "type": "function"
    },
    {
      "constant": true,
      "inputs": [
        {
          "name": "addrs",
          "type": "address[14]"
        },
        {
          "name": "uints",
          "type": "uint256[18]"
        },
        {
          "name": "feeMethodsSidesKindsHowToCalls",
          "type": "uint8[8]"
        },
        {
          "name": "calldataBuy",
          "type": "bytes"
        },
        {
          "name": "calldataSell",
          "type": "bytes"
        },
        {
          "name": "replacementPatternBuy",
          "type": "bytes"
        },
        {
          "name": "replacementPatternSell",
          "type": "bytes"
        },
        {
          "name": "staticExtradataBuy",
          "type": "bytes"
        },
        {
          "name": "staticExtradataSell",
          "type": "bytes"
        }
      ],
      "name": "calculateMatchPrice_",
      "outputs": [
        {
          "name": "",
          "type": "uint256"
        }
      ],
      "payable": false,
      "stateMutability": "view",
      "type": "function"
    },
    {
      "constant": true,
      "inputs": [
        {
          "name": "",
          "type": "bytes32"
        }
      ],
      "name": "approvedOrders",
      "outputs": [
        {
          "name": "",
          "type": "bool"
        }
      ],
      "payable": false,
      "stateMutability": "view",
      "type": "function"
    },
    {
      "constant": false,
      "inputs": [
        {
          "name": "_newOwner",
          "type": "address"
        }
      ],
      "name": "transferOwnership",
      "outputs": [],
      "payable": false,
      "stateMutability": "nonpayable",
      "type": "function"
    },
    {
      "inputs": [
        {
          "name": "registryAddress",
          "type": "address"
        },
        {
          "name": "tokenTransferProxyAddress",
          "type": "address"
        },
        {
          "name": "tokenAddress",
          "type": "address"
        },
        {
          "name": "protocolFeeAddress",
          "type": "address"
        }
      ],
      "payable": false,
      "stateMutability": "nonpayable",
      "type": "constructor"
    },
    {
      "anonymous": false,
      "inputs": [
        {
          "indexed": true,
          "name": "hash",
          "type": "bytes32"
        },
        {
          "indexed": false,
          "name": "exchange",
          "type": "address"
        },
        {
          "indexed": true,
          "name": "maker",
          "type": "address"
        },
        {
          "indexed": false,
          "name": "taker",
          "type": "address"
        },
        {
          "indexed": false,
          "name": "makerRelayerFee",
          "type": "uint256"
        },
        {
          "indexed": false,
          "name": "takerRelayerFee",
          "type": "uint256"
        },
        {
          "indexed": false,
          "name": "makerProtocolFee",
          "type": "uint256"
        },
        {
          "indexed": false,
          "name": "takerProtocolFee",
          "type": "uint256"
        },
        {
          "indexed": true,
          "name": "feeRecipient",
          "type": "address"
        },
        {
          "indexed": false,
          "name": "feeMethod",
          "type": "uint8"
        },
        {
          "indexed": false,
          "name": "side",
          "type": "uint8"
        },
        {
          "indexed": false,
          "name": "saleKind",
          "type": "uint8"
        },
        {
          "indexed": false,
          "name": "target",
          "type": "address"
        }
      ],
      "name": "OrderApprovedPartOne",
      "type": "event"
    },
    {
      "anonymous": false,
      "inputs": [
        {
          "indexed": true,
          "name": "hash",
          "type": "bytes32"
        },
        {
          "indexed": false,
          "name": "howToCall",
          "type": "uint8"
        },
        {
          "indexed": false,
          "name": "calldata",
          "type": "bytes"
        },
        {
          "indexed": false,
          "name": "replacementPattern",
          "type": "bytes"
        },
        {
          "indexed": false,
          "name": "staticTarget",
          "type": "address"
        },
        {
          "indexed": false,
          "name": "staticExtradata",
          "type": "bytes"
        },
        {
          "indexed": false,
          "name": "paymentToken",
          "type": "address"
        },
        {
          "indexed": false,
          "name": "basePrice",
          "type": "uint256"
        },
        {
          "indexed": false,
          "name": "extra",
          "type": "uint256"
        },
        {
          "indexed": false,
          "name": "listingTime",
          "type": "uint256"
        },
        {
          "indexed": false,
          "name": "expirationTime",
          "type": "uint256"
        },
        {
          "indexed": false,
          "name": "salt",
          "type": "uint256"
        },
        {
          "indexed": false,
          "name": "orderbookInclusionDesired",
          "type": "bool"
        }
      ],
      "name": "OrderApprovedPartTwo",
      "type": "event"
    },
    {
      "anonymous": false,
      "inputs": [
        {
          "indexed": true,
          "name": "hash",
          "type": "bytes32"
        }
      ],
      "name": "OrderCancelled",
      "type": "event"
    },
    {
      "anonymous": false,
      "inputs": [
        {
          "indexed": false,
          "name": "buyHash",
          "type": "bytes32"
        },
        {
          "indexed": false,
          "name": "sellHash",
          "type": "bytes32"
        },
        {
          "indexed": true,
          "name": "maker",
          "type": "address"
        },
        {
          "indexed": true,
          "name": "taker",
          "type": "address"
        },
        {
          "indexed": false,
          "name": "price",
          "type": "uint256"
        },
        {
          "indexed": true,
          "name": "metadata",
          "type": "bytes32"
        }
      ],
      "name": "OrdersMatched",
      "type": "event"
    },
    {
      "anonymous": false,
      "inputs": [
        {
          "indexed": true,
          "name": "previousOwner",
          "type": "address"
        }
      ],
      "name": "OwnershipRenounced",
      "type": "event"
    },
    {
      "anonymous": false,
      "inputs": [
        {
          "indexed": true,
          "name": "previousOwner",
          "type": "address"
        },
        {
          "indexed": true,
          "name": "newOwner",
          "type": "address"
        }
      ],
      "name": "OwnershipTransferred",
      "type": "event"
    }
  ],
  "bytecode": "0x60806040526000805460ff19168155600681905560075534801561002257600080fd5b50604051608080614f9c83398101604090815281516020830151918301516060909301516000805460028054600160a060020a03958616600160a060020a0319918216179091556003805496861696821696909617909555600180549685169686169690961790955560088054928416929094169190911790925533166101000261010060a860020a031992831681179092169091179055614ed3806100c96000396000f3006080604052600436106101ab5763ffffffff7c010000000000000000000000000000000000000000000000000000000060003504166306fdde0381146101b05780630eefdbad1461023a57806310796a471461026b57806314350c24146103245780631a6b13e21461033e578063239e83df1461035657806328a8ee681461042b57806331e63199146104525780633464af6a146104675780633e1e292a146104885780633f67ee0d146104e1578063514f03301461062657806354fd4d5014610647578063562b2ebc1461065c57806360bef33a1461076f57806363d36c0b146108c357806364df049e146108f0578063715018a61461090557806371d02b381461091a57806372593b4c14610a5f5780637966686814610c665780637b10399914610daf5780637ccefc5214610dc45780637d76698114610dd95780638076f00514610f1e5780638da5cb5b14610f36578063a25eb5d914610f4b578063a8a41c7014610f60578063ab834bab146110b4578063ca595b9a146112f7578063cae6047f1461143c578063d537e13114611451578063e57d4adb14611658578063f2fde38b14611670575b600080fd5b3480156101bc57600080fd5b506101c5611691565b6040805160208082528351818301528351919283929083019185019080838360005b838110156101ff5781810151838201526020016101e7565b50505050905090810190601f16801561022c5780820380516001836020036101000a031916815260200191505b509250505060405180910390f35b34801561024657600080fd5b5061024f6116c8565b60408051600160a060020a039092168252519081900360200190f35b34801561027757600080fd5b5060408051602060046024803582810135601f8101859004850286018501909652858552610310958335600160a060020a031695369560449491939091019190819084018382808284375050604080516020601f89358b018035918201839004830284018301909452808352979a9998810197919650918201945092508291508401838280828437509497506116d79650505050505050565b604080519115158252519081900360200190f35b34801561033057600080fd5b5061033c600435611746565b005b34801561034a57600080fd5b5061033c60043561176b565b34801561036257600080fd5b506040805160206004803580820135601f81018490048402850184019095528484526101c594369492936024939284019190819084018382808284375050604080516020601f89358b018035918201839004830284018301909452808352979a99988101979196509182019450925082915084018382808284375050604080516020601f89358b018035918201839004830284018301909452808352979a9998810197919650918201945092508291508401838280828437509497506117909650505050505050565b34801561043757600080fd5b506104406117a5565b60408051918252519081900360200190f35b34801561045e57600080fd5b506101c56117ab565b34801561047357600080fd5b506101c5600160a060020a03600435166117e2565b34801561049457600080fd5b506040805160206004803580820135601f81018490048402850184019095528484526101c59436949293602493928401919081908401838280828437509497506118229650505050505050565b3480156104ed57600080fd5b506040805160e081810190925261044091369160049160e49190839060079083908390808284375050604080516101208181019092529497969581810195945092506009915083908390808284375050604080516020601f60808901358a0180359182018390048302840183018552818452979a60ff8a3581169b848c013582169b9687013582169a6060880135909216995091975090955060a090940193820191819084018382808284375050604080516020601f89358b018035918201839004830284018301909452808352979a99988101979196509182019450925082915084018382808284375050604080516020601f89358b018035918201839004830284018301909452808352979a9998810197919650918201945092508291508401838280828437509497506118689650505050505050565b34801561063257600080fd5b5061033c600160a060020a03600435166119b6565b34801561065357600080fd5b506101c5611a10565b34801561066857600080fd5b506040805160206004803580820135601f810184900484028501840190955284845261031094369492936024939284019190819084018382808284375050604080516020601f89358b018035918201839004830284018301909452808352979a99988101979196509182019450925082915084018382808284375050604080516020601f89358b018035918201839004830284018301909452808352979a99988101979196509182019450925082915084018382808284375050604080516020601f89358b018035918201839004830284018301909452808352979a999881019791965091820194509250829150840183828082843750949750611a479650505050505050565b34801561077b57600080fd5b506040805160e081810190925261031091369160049160e49190839060079083908390808284375050604080516101208181019092529497969581810195945092506009915083908390808284375050604080516020601f60808901358a0180359182018390048302840183018552818452979a60ff8a3581169b848c013582169b9687013582169a6060880135909216995091975090955060a090940193820191819084018382808284375050604080516020601f89358b018035918201839004830284018301909452808352979a99988101979196509182019450925082915084018382808284375050604080516020601f89358b018035918201839004830284018301909452808352979a9998810197919650918201945092508291508401838280828437509497505050833560ff1694505050602082013591604001359050611a87565b3480156108cf57600080fd5b5061044060ff6004358116906024351660443560643560843560a435611c7f565b3480156108fc57600080fd5b5061024f611c9a565b34801561091157600080fd5b5061033c611ca9565b34801561092657600080fd5b506040805160e081810190925261044091369160049160e49190839060079083908390808284375050604080516101208181019092529497969581810195945092506009915083908390808284375050604080516020601f60808901358a0180359182018390048302840183018552818452979a60ff8a3581169b848c013582169b9687013582169a6060880135909216995091975090955060a090940193820191819084018382808284375050604080516020601f89358b018035918201839004830284018301909452808352979a99988101979196509182019450925082915084018382808284375050604080516020601f89358b018035918201839004830284018301909452808352979a999881019791965091820194509250829150840183828082843750949750611d239650505050505050565b348015610a6b57600080fd5b50604080516101c08181019092526103109136916004916101c491908390600e9083908390808284375050604080516102408181019092529497969581810195945092506012915083908390808284375050604080516101008181019092529497969581810195945092506008915083908390808284375050604080516020601f88358a0180359182018390048302840183019094528083529699989781019691955091820193509150819084018382808284375050604080516020601f89358b018035918201839004830284018301909452808352979a99988101979196509182019450925082915084018382808284375050604080516020601f89358b018035918201839004830284018301909452808352979a99988101979196509182019450925082915084018382808284375050604080516020601f89358b018035918201839004830284018301909452808352979a99988101979196509182019450925082915084018382808284375050604080516020601f89358b018035918201839004830284018301909452808352979a99988101979196509182019450925082915084018382808284375050604080516020601f89358b018035918201839004830284018301909452808352979a999881019791965091820194509250829150840183828082843750949750611e639650505050505050565b348015610c7257600080fd5b506040805160e081810190925261033c91369160049160e49190839060079083908390808284375050604080516101208181019092529497969581810195945092506009915083908390808284375050604080516020601f60808901358a0180359182018390048302840183018552818452979a60ff8a3581169b848c013582169b9687013582169a6060880135909216995091975090955060a090940193820191819084018382808284375050604080516020601f89358b018035918201839004830284018301909452808352979a99988101979196509182019450925082915084018382808284375050604080516020601f89358b018035918201839004830284018301909452808352979a99988101979196509182019450925082915084018382808284375094975050505091351515925061224f915050565b348015610dbb57600080fd5b5061024f6123a4565b348015610dd057600080fd5b506104406123b3565b348015610de557600080fd5b506040805160e081810190925261044091369160049160e49190839060079083908390808284375050604080516101208181019092529497969581810195945092506009915083908390808284375050604080516020601f60808901358a0180359182018390048302840183018552818452979a60ff8a3581169b848c013582169b9687013582169a6060880135909216995091975090955060a090940193820191819084018382808284375050604080516020601f89358b018035918201839004830284018301909452808352979a99988101979196509182019450925082915084018382808284375050604080516020601f89358b018035918201839004830284018301909452808352979a9998810197919650918201945092508291508401838280828437509497506123b99650505050505050565b348015610f2a57600080fd5b506103106004356124f9565b348015610f4257600080fd5b5061024f61250e565b348015610f5757600080fd5b5061024f612522565b348015610f6c57600080fd5b506040805160e081810190925261033c91369160049160e49190839060079083908390808284375050604080516101208181019092529497969581810195945092506009915083908390808284375050604080516020601f60808901358a0180359182018390048302840183018552818452979a60ff8a3581169b848c013582169b9687013582169a6060880135909216995091975090955060a090940193820191819084018382808284375050604080516020601f89358b018035918201839004830284018301909452808352979a99988101979196509182019450925082915084018382808284375050604080516020601f89358b018035918201839004830284018301909452808352979a9998810197919650918201945092508291508401838280828437509497505050833560ff1694505050602082013591604001359050612531565b604080516101c081810190925261033c9136916004916101c491908390600e9083908390808284375050604080516102408181019092529497969581810195945092506012915083908390808284375050604080516101008181019092529497969581810195945092506008915083908390808284375050604080516020601f88358a0180359182018390048302840183019094528083529699989781019691955091820193509150819084018382808284375050604080516020601f89358b018035918201839004830284018301909452808352979a99988101979196509182019450925082915084018382808284375050604080516020601f89358b018035918201839004830284018301909452808352979a99988101979196509182019450925082915084018382808284375050604080516020601f89358b018035918201839004830284018301909452808352979a99988101979196509182019450925082915084018382808284375050604080516020601f89358b018035918201839004830284018301909452808352979a99988101979196509182019450925082915084018382808284375050604080516020601f89358b018035918201839004830284018301909452808352979a999881019791965091820194509250829150840183828082843750506040805180820182529598979681810196955093506002925084915083908082843750506040805160a08181019092529497969581810195945092506005915083908390808284375093965061270795505050505050565b34801561130357600080fd5b506040805160e081810190925261031091369160049160e49190839060079083908390808284375050604080516101208181019092529497969581810195945092506009915083908390808284375050604080516020601f60808901358a0180359182018390048302840183018552818452979a60ff8a3581169b848c013582169b9687013582169a6060880135909216995091975090955060a090940193820191819084018382808284375050604080516020601f89358b018035918201839004830284018301909452808352979a99988101979196509182019450925082915084018382808284375050604080516020601f89358b018035918201839004830284018301909452808352979a999881019791965091820194509250829150840183828082843750949750612b1d9650505050505050565b34801561144857600080fd5b50610440612c75565b34801561145d57600080fd5b50604080516101c08181019092526104409136916004916101c491908390600e9083908390808284375050604080516102408181019092529497969581810195945092506012915083908390808284375050604080516101008181019092529497969581810195945092506008915083908390808284375050604080516020601f88358a0180359182018390048302840183019094528083529699989781019691955091820193509150819084018382808284375050604080516020601f89358b018035918201839004830284018301909452808352979a99988101979196509182019450925082915084018382808284375050604080516020601f89358b018035918201839004830284018301909452808352979a99988101979196509182019450925082915084018382808284375050604080516020601f89358b018035918201839004830284018301909452808352979a99988101979196509182019450925082915084018382808284375050604080516020601f89358b018035918201839004830284018301909452808352979a99988101979196509182019450925082915084018382808284375050604080516020601f89358b018035918201839004830284018301909452808352979a999881019791965091820194509250829150840183828082843750949750612c7b9650505050505050565b34801561166457600080fd5b50610310600435613057565b34801561167c57600080fd5b5061033c600160a060020a036004351661306c565b60408051808201909152601781527f50726f6a6563742057797665726e2045786368616e6765000000000000000000602082015281565b600354600160a060020a031681565b60006060600083518551016040519080825280601f01601f19166020018201604052801561170f578160200160208202803883390190505b50915050602081016117218185613098565b905061172d8186613098565b506000604051835160208501895afa9695505050505050565b60005433600160a060020a03908116610100909204161461176657600080fd5b600655565b60005433600160a060020a03908116610100909204161461178b57600080fd5b600755565b606061179d8484846130de565b509192915050565b60075481565b60408051808201909152600c81527f4c616d62746f6e20576f726d0000000000000000000000000000000000000000602082015281565b60408051601480825281830190925260609182916000916020820161028080388339019050509150506020810161181981856132bf565b50909392505050565b606080600083516040519080825280601f01601f191660200182016040528015611856578160200160208202803883390190505b50915050602081016118198185613098565b604080516102e0810182528a51600160a060020a0390811682526020808d01518216818401528c8401518216838501528b51606080850191909152908c01516080840152928b015160a08301528a83015160c0830152918b015190911660e08201526000906119a89061010081018a60018111156118e257fe5b81526020018960018111156118f357fe5b815260200188600181111561190457fe5b815260808d0151600160a060020a0316602082015260400187600181111561192857fe5b8152602081018790526040810186905260a0808e0151600160a060020a0316606083015260808201869052018c600660209081029190910151600160a060020a031682526080808e01519183019190915260a0808e0151604084015260c08e0151606084015260e08e0151918301919091526101008d01519101526132df565b9a9950505050505050505050565b60005433600160a060020a0390811661010090920416146119d657600080fd5b600880547fffffffffffffffffffffffff000000000000000000000000000000000000000016600160a060020a0392909216919091179055565b60408051808201909152600381527f322e320000000000000000000000000000000000000000000000000000000000602082015281565b60008084511115611a5d57611a5d8584866130de565b600082511115611a7257611a728386846130de565b611a7c8584613315565b90505b949350505050565b6000611a91614dc3565b604080516102e08101909152808f600060209081029190910151600160a060020a03168252018f600160209081029190910151600160a060020a03168252018f600260209081029190910151600160a060020a03168252018e6000602090810291909101518252018e6001602090810291909101518252018e6002602090810291909101518252018e6003602090810291909101518252018f60036020020151600160a060020a031681526020018d6001811115611b4b57fe5b81526020018c6001811115611b5c57fe5b81526020018b6001811115611b6d57fe5b81526020018f60046020020151600160a060020a031681526020018a6001811115611b9457fe5b8152602081018a9052604081018990526060018f60056020020151600160a060020a031681526020018781526020018f6006600781101515611bd257fe5b60209081029190910151600160a060020a03168252018e6004602090810291909101518252018e6005602090810291909101518252018e6006602090810291909101518252018e6007602090810291909101518252018e6008602002015190529050611c6d611c4082613379565b611c49836133c4565b6040805160608101825260ff8a16815260208101899052908101879052849061340f565b9e9d5050505050505050505050505050565b6000611c8f878787878787613599565b979650505050505050565b600854600160a060020a031681565b60005433600160a060020a039081166101009092041614611cc957600080fd5b60008054604051610100909104600160a060020a0316917ff8df31144d9c2f0f6b59d69b8b98abd5459d07f2742c4df920b25aae33c6482091a26000805474ffffffffffffffffffffffffffffffffffffffff0019169055565b604080516102e0810182528a51600160a060020a0390811682526020808d01518216818401528c8401518216838501528b51606080850191909152908c01516080840152928b015160a08301528a83015160c0830152918b015190911660e08201526000906119a89061010081018a6001811115611d9d57fe5b8152602001896001811115611dae57fe5b8152602001886001811115611dbf57fe5b815260808d0151600160a060020a03166020820152604001876001811115611de357fe5b8152602081018790526040810186905260a0808e0151600160a060020a0316606083015260808201869052018c600660209081029190910151600160a060020a031682526080808e01519183019190915260a0808e0151604084015260c08e0151606084015260e08e0151918301919091526101008d015191015261362c565b6000611e6d614dc3565b611e75614dc3565b604080516102e08101909152808d600060209081029190910151600160a060020a03168252018d600160209081029190910151600160a060020a03168252018d600260209081029190910151600160a060020a03168252018c6000602090810291909101518252018c6001602090810291909101518252018c6002602090810291909101518252018c6003602090810291909101518252018d600360209081029190910151600160a060020a03168252018b6000602002015160ff166001811115611f3c57fe5b6001811115611f4757fe5b81526020018b6001602002015160ff166001811115611f6257fe5b6001811115611f6d57fe5b81526020018b6002602002015160ff166001811115611f8857fe5b6001811115611f9357fe5b815260808e0151600160a060020a0316602082015260608c015160409091019060ff166001811115611fc157fe5b6001811115611fcc57fe5b8152602081018b90526040810189905260a0808f0151600160a060020a0316606083015260808201889052018d600660209081029190910151600160a060020a03168252018c6004602090810291909101518252018c6005602090810291909101518252018c6006602090810291909101518252018c6007602090810291909101518252018c600860200201519052604080516102e08101909152909250808d600760209081029190910151600160a060020a03168252018d600860209081029190910151600160a060020a03168252018d600960209081029190910151600160a060020a03168252018c6009602090810291909101518252018c600a602090810291909101518252018c600b602090810291909101518252018c600c602090810291909101518252018d600a60209081029190910151600160a060020a03168252018b6004602002015160ff16600181111561212557fe5b600181111561213057fe5b81526020018b6005602002015160ff16600181111561214b57fe5b600181111561215657fe5b81526020018b6006602002015160ff16600181111561217157fe5b600181111561217c57fe5b81526101608e0151600160a060020a0316602082015260e08c015160409091019060ff1660018111156121ab57fe5b60018111156121b657fe5b8152602081018a9052604081018890526101808e0151600160a060020a031660608201526080810186905260a0018d600d60209081029190910151600160a060020a031682526101a08e0151908201526101c08d015160408201526101e08d015160608201526102008d015160808201526102208d015160a090910152905061223f828261381b565b9c9b505050505050505050505050565b612257614dc3565b604080516102e0810182528c51600160a060020a0390811682526020808f01518216818401528e8401518216838501528d51606080850191909152908e01516080840152928d015160a08301528c83015160c0830152918d015190911660e082015261010081018a60018111156122ca57fe5b81526020018960018111156122db57fe5b81526020018860018111156122ec57fe5b815260808d0151600160a060020a0316602082015260400187600181111561231057fe5b8152602081018790526040810186905260a0808e0151600160a060020a0316606083015260808201869052018c600660209081029190910151600160a060020a031682526080808e01519183019190915260a0808e0151604084015260c08e0151606084015260e08e0151918301919091526101008d0151910152905061239781836139fc565b5050505050505050505050565b600254600160a060020a031681565b60065481565b604080516102e0810182528a51600160a060020a0390811682526020808d01518216818401528c8401518216838501528b51606080850191909152908c01516080840152928b015160a08301528a83015160c0830152918b015190911660e08201526000906119a89061010081018a600181111561243357fe5b815260200189600181111561244457fe5b815260200188600181111561245557fe5b815260808d0151600160a060020a0316602082015260400187600181111561247957fe5b8152602081018790526040810186905260a0808e0151600160a060020a0316606083015260808201869052018c600660209081029190910151600160a060020a031682526080808e01519183019190915260a0808e0151604084015260c08e0151606084015260e08e0151918301919091526101008d0151910152613379565b60046020526000908152604090205460ff1681565b6000546101009004600160a060020a031681565b600154600160a060020a031681565b604080516102e081019091526126f990808e600060209081029190910151600160a060020a03168252018e600160209081029190910151600160a060020a03168252018e600260209081029190910151600160a060020a03168252018d6000602090810291909101518252018d6001602090810291909101518252018d6002602090810291909101518252018d6003602090810291909101518252018e60036020020151600160a060020a031681526020018c60018111156125ef57fe5b81526020018b600181111561260057fe5b81526020018a600181111561261157fe5b815260808f0151600160a060020a0316602082015260400189600181111561263557fe5b815260208101899052604081018890526060018e60056020020151600160a060020a031681526020018681526020018e600660078110151561267357fe5b60209081029190910151600160a060020a03168252018d6004602090810291909101518252018d6005602090810291909101518252018d6006602090810291909101518252018d6007602090810291909101518252018d6008602090810291909101519091526040805160608101825260ff881681529182018690528101849052613dca565b505050505050505050505050565b604080516102e0810182528c51600160a060020a0390811682526020808f01518216818401528e8401518216838501528d51606080850191909152908e01516080840152928d015160a08301528c83015160c0830152918d015190911660e08201528951612397919061010082019060ff16600181111561278457fe5b600181111561278f57fe5b81526020018b6001602002015160ff1660018111156127aa57fe5b60018111156127b557fe5b81526020018b6002602002015160ff1660018111156127d057fe5b60018111156127db57fe5b815260808e0151600160a060020a0316602082015260608c015160409091019060ff16600181111561280957fe5b600181111561281457fe5b8152602081018b90526040810189905260a0808f0151600160a060020a0316606083015260808201889052018d600660209081029190910151600160a060020a03168252018c6004602090810291909101518252018c6005602090810291909101518252018c6006602090810291909101518252018c6007602090810291909101518252018c6008602002015190526040805160608101909152808560006020908102919091015160ff168252018460006020908102919091015182520184600160200201519052604080516102e08101909152808f600760209081029190910151600160a060020a03168252018f600860209081029190910151600160a060020a03168252018f600960209081029190910151600160a060020a03168252018e6009602090810291909101518252018e600a602090810291909101518252018e600b602090810291909101518252018e600c602090810291909101518252018f600a60209081029190910151600160a060020a03168252018d6004602002015160ff1660018111156129a357fe5b60018111156129ae57fe5b81526020018d6005602002015160ff1660018111156129c957fe5b60018111156129d457fe5b81526020018d6006602002015160ff1660018111156129ef57fe5b60018111156129fa57fe5b81526020018f600b60209081029190910151600160a060020a03168252018d6007602002015160ff166001811115612a2e57fe5b6001811115612a3957fe5b8152602081018c9052604081018a90526060018f600c6020020151600160a060020a031681526020018781526020018f600d600e81101515612a7757fe5b60209081029190910151600160a060020a03168252018e600d602090810291909101518252018e600e602090810291909101518252018e600f602090810291909101518252018e6010602090810291909101518252018e6011602002015190526040805160608101909152808760016020908102919091015160ff1682520186600260209081029190910151825201866003602002015190528560046020020151613e41565b6000612b27614dc3565b604080516102e0810182528c51600160a060020a0390811682526020808f01518216818401528e8401518216838501528d51606080850191909152908e01516080840152928d015160a08301528c83015160c0830152918d015190911660e082015261010081018a6001811115612b9a57fe5b8152602001896001811115612bab57fe5b8152602001886001811115612bbc57fe5b815260808d0151600160a060020a03166020820152604001876001811115612be057fe5b8152602081018790526040810186905260a0808e0151600160a060020a0316606083015260808201869052018c600660209081029190910151600160a060020a031682526080808e01519183019190915260a0808e0151604084015260c08e0151606084015260e08e0151918301919091526101008d01519101529050612c6681614453565b9b9a5050505050505050505050565b61271081565b6000612c85614dc3565b612c8d614dc3565b604080516102e08101909152808d600060209081029190910151600160a060020a03168252018d600160209081029190910151600160a060020a03168252018d600260209081029190910151600160a060020a03168252018c6000602090810291909101518252018c6001602090810291909101518252018c6002602090810291909101518252018c6003602090810291909101518252018d600360209081029190910151600160a060020a03168252018b6000602002015160ff166001811115612d5457fe5b6001811115612d5f57fe5b81526020018b6001602002015160ff166001811115612d7a57fe5b6001811115612d8557fe5b81526020018b6002602002015160ff166001811115612da057fe5b6001811115612dab57fe5b815260808e0151600160a060020a0316602082015260608c015160409091019060ff166001811115612dd957fe5b6001811115612de457fe5b8152602081018b90526040810189905260a0808f0151600160a060020a0316606083015260808201889052018d600660209081029190910151600160a060020a03168252018c6004602090810291909101518252018c6005602090810291909101518252018c6006602090810291909101518252018c6007602090810291909101518252018c600860200201519052604080516102e08101909152909250808d600760209081029190910151600160a060020a03168252018d600860209081029190910151600160a060020a03168252018d600960209081029190910151600160a060020a03168252018c6009602090810291909101518252018c600a602090810291909101518252018c600b602090810291909101518252018c600c602090810291909101518252018d600a60209081029190910151600160a060020a03168252018b6004602002015160ff166001811115612f3d57fe5b6001811115612f4857fe5b81526020018b6005602002015160ff166001811115612f6357fe5b6001811115612f6e57fe5b81526020018b6006602002015160ff166001811115612f8957fe5b6001811115612f9457fe5b81526101608e0151600160a060020a0316602082015260e08c015160409091019060ff166001811115612fc357fe5b6001811115612fce57fe5b8152602081018a9052604081018890526101808e0151600160a060020a031660608201526080810186905260a0018d600d60209081029190910151600160a060020a031682526101a08e0151908201526101c08d015160408201526101e08d015160608201526102008d015160808201526102208d015160a090910152905061223f82826144e7565b60056020526000908152604090205460ff1681565b60005433600160a060020a03908116610100909204161461308c57600080fd5b6130958161457a565b50565b600080825111156130d557815180602001830160208401855b600183831014156130cc5781518152602091820191016130b1565b50505092909201915b50815b92915050565b6000806000845186511415156130f357600080fd5b835186511461310157600080fd5b855160209004925060208084029250839083041461311b57fe5b5060005b8281101561314b576001016020810284810151868201519188018051928216911990921617905261311f565b600083111561317b57829050806001016020028085015181870151811682890151821916178289015250506132b7565b50805b85518110156132b757848181518110151561319557fe5b906020010151600080516020614e888339815191529004600080516020614e888339815191520284828151811015156131ca57fe5b906020010151600080516020614e888339815191529004600080516020614e888339815191520216868281518110151561320057fe5b906020010151600080516020614e888339815191529004600080516020614e8883398151915202858381518110151561323557fe5b906020010151600080516020614e888339815191529004600080516020614e888339815191520260ff600080516020614e8883398151915202181617868281518110151561327f57fe5b9060200101907effffffffffffffffffffffffffffffffffffffffffffffffffffffffffffff1916908160001a90535060010161317e565b505050505050565b600160a060020a03166c0100000000000000000000000002815260140190565b600061330d826101200151836101400151846102400151856102600151866102800151876102a00151613599565b90505b919050565b815181516000916001918114808314613331576000925061336f565b600160208701838101602088015b60028483851001141561336a57805183511461335e5760009650600093505b6020928301920161333f565b505050505b5090949350505050565b60006133848261362c565b604080517f19457468657265756d205369676e6564204d6573736167653a0a3332000000008152601c8101929092525190819003603c0190209050919050565b60006133cf8261362c565b604080517f194b6c6179746e205369676e6564204d6573736167653a0a33320000000000008152601a8101929092525190819003603a0190209050919050565b600061341a83614453565b151561342857506000611a7f565b60008581526004602052604090205460ff161561344757506000611a7f565b60008581526005602052604090205460ff161561346657506001611a7f565b602080840151835184830151604080870151815160008082528188018085528d905260ff909516818401526060810193909352608083015251600160a060020a039093169360019360a0808401949293601f19830193908390039091019190865af11580156134d9573d6000803e3d6000fd5b50505060206040510351600160a060020a031614156134fa57506001611a7f565b602080840151835184830151604080870151815160008082528188018085528c905260ff909516818401526060810193909352608083015251600160a060020a039093169360019360a0808401949293601f19830193908390039091019190865af115801561356d573d6000803e3d6000fd5b50505060206040510351600160a060020a0316141561358e57506001611a7f565b506000949350505050565b600080808760018111156135a957fe5b14156135b757859150613621565b60018760018111156135c557fe5b1415613621576135f06135e1866135dc4288614602565b614614565b6135eb8587614602565b61463d565b9050600188600181111561360057fe5b1415613617576136108682614602565b9150613621565b6136108682614652565b509695505050505050565b6000806060600061363c8561465f565b9250826040519080825280601f01601f19166020018201604052801561366c578160200160208202803883390190505b5091506020820190506136838186600001516132bf565b90506136938186602001516132bf565b90506136a38186604001516132bf565b90506136b381866060015161467f565b90506136c381866080015161467f565b90506136d3818660a0015161467f565b90506136e3818660c0015161467f565b90506136f3818660e001516132bf565b905061370f81866101000151600181111561370a57fe5b614687565b905061372681866101200151600181111561370a57fe5b905061373d81866101400151600181111561370a57fe5b905061374e818661016001516132bf565b905061376581866101800151600181111561370a57fe5b905061377681866101a00151613098565b905061378781866101c00151613098565b905061379881866101e001516132bf565b90506137a981866102000151613098565b90506137ba818661022001516132bf565b90506137cb8186610240015161467f565b90506137dc8186610260015161467f565b90506137ed8186610280015161467f565b90506137fe81866102a0015161467f565b905061380f81866102c0015161467f565b50506020012092915050565b600080836101200151600181111561382f57fe5b14801561384c57506001826101200151600181111561384a57fe5b145b80156138775750816101000151600181111561386457fe5b836101000151600181111561387557fe5b145b801561389e5750816102200151600160a060020a0316836102200151600160a060020a0316145b80156138d857506040820151600160a060020a031615806138d857508260200151600160a060020a03168260400151600160a060020a0316145b801561391257506040830151600160a060020a0316158061391257508160200151600160a060020a03168360400151600160a060020a0316145b801561396d575060e0820151600160a060020a0316158015613940575060e0830151600160a060020a031615155b8061396d575060e0820151600160a060020a03161580159061396d575060e0830151600160a060020a0316155b80156139945750816101600151600160a060020a0316836101600151600160a060020a0316145b80156139bf575081610180015160018111156139ac57fe5b83610180015160018111156139bd57fe5b145b80156139da57506139da836102800151846102a00151614694565b80156139f557506139f5826102800151836102a00151614694565b9392505050565b60008260200151600160a060020a031633600160a060020a0316141515613a2257600080fd5b613a2b83613379565b60008181526005602052604090205490915060ff1615613a4a57600080fd5b600160056000836000191660001916815260200190815260200160002060006101000a81548160ff0219169083151502179055508260e00151600160a060020a03168360200151600160a060020a031682600019167f90c7f9f5b58c15f0f635bfb99f55d3d78fdbef3559e7d8abf5c81052a527662286600001518760400151886060015189608001518a60a001518b60c001518c61010001518d61012001518e61014001518f6101600151604051808b600160a060020a0316600160a060020a031681526020018a600160a060020a0316600160a060020a03168152602001898152602001888152602001878152602001868152602001856001811115613b4e57fe5b60ff168152602001846001811115613b6257fe5b60ff168152602001836001811115613b7657fe5b60ff168152600160a060020a039092166020830152506040805191829003019950975050505050505050a480600019167fe55393c778364e440d958b39ac1debd99dcfae3775a8a04d1e79124adf6a2d08846101800151856101a00151866101c00151876101e001518861020001518961022001518a61024001518b61026001518c61028001518d6102a001518e6102c001518e604051808d6001811115613c1a57fe5b60ff16815260200180602001806020018c600160a060020a0316600160a060020a03168152602001806020018b600160a060020a0316600160a060020a031681526020018a81526020018981526020018881526020018781526020018681526020018515151515815260200184810384528f818151815260200191508051906020019080838360005b83811015613cbb578181015183820152602001613ca3565b50505050905090810190601f168015613ce85780820380516001836020036101000a031916815260200191505b5084810383528e818151815260200191508051906020019080838360005b83811015613d1e578181015183820152602001613d06565b50505050905090810190601f168015613d4b5780820380516001836020036101000a031916815260200191505b5084810382528c5181528c516020918201918e019080838360005b83811015613d7e578181015183820152602001613d66565b50505050905090810190601f168015613dab5780820380516001836020036101000a031916815260200191505b509f5050505050505050505050505050505060405180910390a2505050565b6000613dd683836146b0565b90508260200151600160a060020a031633600160a060020a0316141515613dfc57600080fd5b600081815260046020526040808220805460ff191660011790555182917f5152abf959f6564662358c2e52b702259b78bac5ee7842a0f01937e670efcc7d91a2505050565b6000805481908190819081908190819060ff1615613e5e57600080fd5b6000805460ff1916600117905560208c0151600160a060020a0390811633919091161415613e9f57613e8f8c614453565b1515613e9a57600080fd5b613eac565b613ea98c8c6146b0565b96505b33600160a060020a03168a60200151600160a060020a03161415613ee357613ed38a614453565b1515613ede57600080fd5b613ef0565b613eed8a8a6146b0565b95505b613efa8c8b61381b565b1515613f0557600080fd5b6101608a0151803b9550935060008511613f1e57600080fd5b60008c6101c00151511115613f4757613f478c6101a001518b6101a001518e6101c001516130de565b60008a6101c00151511115613f7057613f708a6101a001518d6101a001518c6101c001516130de565b613f848c6101a001518b6101a00151613315565b1515613f8f57600080fd5b6002546020808c0151604080517fc4552791000000000000000000000000000000000000000000000000000000008152600160a060020a0392831660048201529051919093169263c45527919260248083019391928290030181600087803b158015613ffa57600080fd5b505af115801561400e573d6000803e3d6000fd5b505050506040513d602081101561402457600080fd5b50519250600160a060020a038316151561403d57600080fd5b600260009054906101000a9004600160a060020a0316600160a060020a03166397204d8e6040518163ffffffff167c0100000000000000000000000000000000000000000000000000000000028152600401602060405180830381600087803b1580156140a957600080fd5b505af11580156140bd573d6000803e3d6000fd5b505050506040513d60208110156140d357600080fd5b5051604080517f5c60da1b0000000000000000000000000000000000000000000000000000000081529051600160a060020a0392831692861691635c60da1b9160048083019260209291908290030181600087803b15801561413457600080fd5b505af1158015614148573d6000803e3d6000fd5b505050506040513d602081101561415e57600080fd5b5051600160a060020a03161461417357600080fd5b8291508b60200151600160a060020a031633600160a060020a03161415156141af576000878152600460205260409020805460ff191660011790555b8960200151600160a060020a031633600160a060020a03161415156141e8576000868152600460205260409020805460ff191660011790555b6141f28c8b6146e2565b905081600160a060020a0316631b0f7ba98b61016001518c61018001518d6101a001516040518463ffffffff167c01000000000000000000000000000000000000000000000000000000000281526004018084600160a060020a0316600160a060020a0316815260200183600181111561426857fe5b60ff16815260200180602001828103825283818151815260200191508051906020019080838360005b838110156142a9578181015183820152602001614291565b50505050905090810190601f1680156142d65780820380516001836020036101000a031916815260200191505b50945050505050602060405180830381600087803b1580156142f757600080fd5b505af115801561430b573d6000803e3d6000fd5b505050506040513d602081101561432157600080fd5b5051151561432e57600080fd5b6101e08c0151600160a060020a0316156143675761435c8c6101e001518b6101a001518e61020001516116d7565b151561436757600080fd5b6101e08a0151600160a060020a0316156143a0576143958a6101e001518b6101a001518c61020001516116d7565b15156143a057600080fd5b60e08a01518890600160a060020a031615156143c0578a602001516143c6565b8c602001515b60e08c0151600160a060020a03918216911615156143e8578d602001516143ee565b8b602001515b604080518b8152602081018b90528082018690529051600160a060020a0392909216917fc4109843e0b7d514e4c093114b863f8e7d8d9a458c372cd51bfe526b588006c99181900360600190a450506000805460ff1916905550505050505050505050565b600030600160a060020a03168260000151600160a060020a031614151561447c57506000613310565b614490826101400151836102a00151614cc2565b151561449e57506000613310565b600182610100015160018111156144b157fe5b1480156144d257506006548260a0015110806144d257506007548260c00151105b156144df57506000613310565b506001919050565b6000806000614518846101200151856101400151866102400151876102600151886102800151896102a00151613599565b91506145468561012001518661014001518761024001518861026001518961028001518a6102a00151613599565b90508181101561455557600080fd5b60e0840151600160a060020a0316151561456f5780614571565b815b95945050505050565b600160a060020a038116151561458f57600080fd5b60008054604051600160a060020a038085169361010090930416917f8be0079c531659141344cd1fd0a4f28419497f9722a3daafe3b4186f6b6457e091a360008054600160a060020a039092166101000274ffffffffffffffffffffffffffffffffffffffff0019909216919091179055565b60008282111561460e57fe5b50900390565b6000821515614625575060006130d8565b5081810281838281151561463557fe5b04146130d857fe5b6000818381151561464a57fe5b049392505050565b818101828110156130d857fe5b610200810151516101c0820151516101a08301515101016101b001919050565b815260200190565b6000818353505060010190565b600042831080156139f557508115806139f55750504210919050565b60008060006146be85613379565b91506146c9856133c4565b90506146d78282878761340f565b151561456f57600080fd5b600080600080600080600080600080600160a060020a03168a6102200151600160a060020a031614151561471b57341561471b57600080fd5b6147258b8b6144e7565b975060008811801561474457506102208a0151600160a060020a031615155b15614762576147628a61022001518c602001518c602001518b614ce1565b60e08a0151889750879650600160a060020a031615614a7e576080808c0151908b0151111561479057600080fd5b60018a610100015160018111156147a357fe5b1415614a4b5760c0808c0151908b015111156147be57600080fd5b60008a606001511115614862576147e46147dc8b606001518a614614565b61271061463d565b6102208b0151909550600160a060020a03161515614849576148068786614602565b60e08b0151604051919850600160a060020a03169086156108fc029087906000818181858888f19350505050158015614843573d6000803e3d6000fd5b50614862565b6148628a61022001518b602001518c60e0015188614ce1565b60008a6080015111156148fe576148806147dc8b608001518a614614565b6102208b0151909450600160a060020a031615156148e5576148a28685614652565b60e08b0151604051919750600160a060020a03169085156108fc029086906000818181858888f193505050501580156148df573d6000803e3d6000fd5b506148fe565b6148fe8a61022001518c602001518c60e0015187614ce1565b60008a60a0015111156149a25761491c6147dc8b60a001518a614614565b6102208b0151909350600160a060020a0316151561497f5761493e8784614602565b600854604051919850600160a060020a03169084156108fc029085906000818181858888f19350505050158015614979573d6000803e3d6000fd5b506149a2565b6102208a015160208b01516008546149a2929190600160a060020a031686614ce1565b60008a60c001511115614a46576149c06147dc8b60c001518a614614565b6102208b0151909250600160a060020a03161515614a23576149e28683614652565b600854604051919750600160a060020a03169083156108fc029084906000818181858888f19350505050158015614a1d573d6000803e3d6000fd5b50614a46565b6102208a015160208c0151600854614a46929190600160a060020a031685614ce1565b614a79565b614a628a602001518b60e001518c60600151614da6565b614a798b602001518b60e001518c60800151614da6565b614bff565b6080808b0151908c01511115614a9357600080fd5b60018a61010001516001811115614aa657fe5b1415614bd1576102208a0151600160a060020a03161515614ac657600080fd5b60c0808b0151908c01511115614adb57600080fd5b60008b606001511115614b1457614af96147dc8c606001518a614614565b9450614b148a61022001518c602001518d60e0015188614ce1565b60008b608001511115614b4d57614b326147dc8c608001518a614614565b9350614b4d8a61022001518b602001518d60e0015187614ce1565b60008b60a001511115614b8f57614b6b6147dc8c60a001518a614614565b6102208b015160208d0151600854929550614b8f92600160a060020a031686614ce1565b60008b60c001511115614a7957614bad6147dc8c60c001518a614614565b6102208b015160208c0151600854929450614a7992600160a060020a031685614ce1565b614be88b602001518c60e001518d60600151614da6565b614bff8a602001518c60e001518d60800151614da6565b6102208a0151600160a060020a03161515614cb35734861115614c2157600080fd5b8960200151600160a060020a03166108fc889081150290604051600060405180830381858888f19350505050158015614c5e573d6000803e3d6000fd5b50614c693487614602565b90506000811115614cb3578a60200151600160a060020a03166108fc829081150290604051600060405180830381858888f19350505050158015614cb1573d6000803e3d6000fd5b505b50959998505050505050505050565b600080836001811115614cd157fe5b14806139f5575050600010919050565b6000811115614da057600354604080517f15dacbea000000000000000000000000000000000000000000000000000000008152600160a060020a0387811660048301528681166024830152858116604483015260648201859052915191909216916315dacbea9160848083019260209291908290030181600087803b158015614d6957600080fd5b505af1158015614d7d573d6000803e3d6000fd5b505050506040513d6020811015614d9357600080fd5b50511515614da057600080fd5b50505050565b600154614dbe90600160a060020a0316848484614ce1565b505050565b604080516102e081018252600080825260208201819052918101829052606081018290526080810182905260a0810182905260c0810182905260e081018290529061010082019081526020016000815260200160008152600060208201819052604090910190815260200160608152602001606081526020016000600160a060020a03168152602001606081526020016000600160a060020a031681526020016000815260200160008152602001600081526020016000815260200160008152509056000100000000000000000000000000000000000000000000000000000000000000a165627a7a723058209d2239d3430d1b2573c96c9e02846a46acd3e6f9f0bc6d9023eb8bc86d47fc2e0029",
  "source": "/*\n\n  << Project Wyvern Exchange >>\n\n*/\n\npragma solidity 0.4.23;\n\nimport \"./exchange/Exchange.sol\";\n\n/**\n * @title WyvernExchange\n * @author Project Wyvern Developers\n */\ncontract WyvernExchange is Exchange {\n\n    string public constant name = \"Project Wyvern Exchange\";\n\n    string public constant version = \"2.2\";\n\n    string public constant codename = \"Lambton Worm\";\n\n    /**\n     * @dev Initialize a WyvernExchange instance\n     * @param registryAddress Address of the registry instance which this Exchange instance will use\n     * @param tokenAddress Address of the token used for protocol fees\n     */\n    constructor (ProxyRegistry registryAddress, TokenTransferProxy tokenTransferProxyAddress, ERC20 tokenAddress, address protocolFeeAddress) public {\n        registry = registryAddress;\n        tokenTransferProxy = tokenTransferProxyAddress;\n        exchangeToken = tokenAddress;\n        protocolFeeRecipient = protocolFeeAddress;\n        owner = msg.sender;\n    }\n\n}\n",
  "sourcePath": "/Users/joongyu/workspace/blocks/desktop/wyvern-js/src/wyvern-ethereum/contracts/WyvernExchange.sol",
  "compiler": {
    "name": "solc",
    "version": "0.4.23+commit.124ca40d.Emscripten.clang"
  },
  "schemaVersion": "3.4.9",
  "updatedAt": "2023-03-25T05:43:08.161Z",
  "networkType": "ethereum",
  "devdoc": {
    "author": "Project Wyvern Developers",
    "methods": {
      "approveOrder_(address[7],uint256[9],uint8,uint8,uint8,uint8,bytes,bytes,bytes,bool)": {
        "details": "Call approveOrder - Solidity ABI encoding limitation workaround, hopefully temporary."
      },
      "atomicMatch_(address[14],uint256[18],uint8[8],bytes,bytes,bytes,bytes,bytes,bytes,uint8[2],bytes32[5])": {
        "details": "Call atomicMatch - Solidity ABI encoding limitation workaround, hopefully temporary."
      },
      "calculateCurrentPrice_(address[7],uint256[9],uint8,uint8,uint8,uint8,bytes,bytes,bytes)": {
        "details": "Call calculateCurrentPrice - Solidity ABI encoding limitation workaround, hopefully temporary."
      },
      "calculateFinalPrice(uint8,uint8,uint256,uint256,uint256,uint256)": {
        "details": "Call calculateFinalPrice - library function exposed for testing."
      },
      "calculateMatchPrice_(address[14],uint256[18],uint8[8],bytes,bytes,bytes,bytes,bytes,bytes)": {
        "details": "Call calculateMatchPrice - Solidity ABI encoding limitation workaround, hopefully temporary."
      },
      "cancelOrder_(address[7],uint256[9],uint8,uint8,uint8,uint8,bytes,bytes,bytes,uint8,bytes32,bytes32)": {
        "details": "Call cancelOrder - Solidity ABI encoding limitation workaround, hopefully temporary."
      },
      "changeMinimumMakerProtocolFee(uint256)": {
        "details": "Change the minimum maker fee paid to the protocol (owner only)",
        "params": {
          "newMinimumMakerProtocolFee": "New fee to set in basis points"
        }
      },
      "changeMinimumTakerProtocolFee(uint256)": {
        "details": "Change the minimum taker fee paid to the protocol (owner only)",
        "params": {
          "newMinimumTakerProtocolFee": "New fee to set in basis points"
        }
      },
      "changeProtocolFeeRecipient(address)": {
        "details": "Change the protocol fee recipient (owner only)",
        "params": {
          "newProtocolFeeRecipient": "New protocol fee recipient address"
        }
      },
      "guardedArrayReplace(bytes,bytes,bytes)": {
        "details": "Call guardedArrayReplace - library function exposed for testing."
      },
      "hashOrder_(address[7],uint256[9],uint8,uint8,uint8,uint8,bytes,bytes,bytes)": {
        "details": "Call hashOrder - Solidity ABI encoding limitation workaround, hopefully temporary."
      },
      "hashToSign_(address[7],uint256[9],uint8,uint8,uint8,uint8,bytes,bytes,bytes)": {
        "details": "Call hashToSign - Solidity ABI encoding limitation workaround, hopefully temporary."
      },
      "orderCalldataCanMatch(bytes,bytes,bytes,bytes)": {
        "details": "Return whether or not two orders' calldata specifications can match",
        "params": {
          "buyCalldata": "Buy-side order calldata",
          "buyReplacementPattern": "Buy-side order calldata replacement mask",
          "sellCalldata": "Sell-side order calldata",
          "sellReplacementPattern": "Sell-side order calldata replacement mask"
        },
        "return": "Whether the orders' calldata can be matched"
      },
      "ordersCanMatch_(address[14],uint256[18],uint8[8],bytes,bytes,bytes,bytes,bytes,bytes)": {
        "details": "Call ordersCanMatch - Solidity ABI encoding limitation workaround, hopefully temporary."
      },
      "renounceOwnership()": {
        "details": "Allows the current owner to relinquish control of the contract."
      },
      "staticCall(address,bytes,bytes)": {
        "details": "Execute a STATICCALL (introduced with Ethereum Metropolis, non-state-modifying external call)",
        "params": {
          "calldata": "Calldata (appended to extradata)",
          "extradata": "Base data for STATICCALL (probably function selector and argument encoding)",
          "target": "Contract to call"
        },
        "return": "The result of the call (success or failure)"
      },
      "testCopy(bytes)": {
        "params": {
          "arrToCopy": "Array to copy"
        },
        "return": "byte array"
      },
      "testCopyAddress(address)": {
        "params": {
          "addr": "Address to write"
        },
        "return": "byte array"
      },
      "transferOwnership(address)": {
        "details": "Allows the current owner to transfer control of the contract to a newOwner.",
        "params": {
          "_newOwner": "The address to transfer ownership to."
        }
      },
      "validateOrderParameters_(address[7],uint256[9],uint8,uint8,uint8,uint8,bytes,bytes,bytes)": {
        "details": "Call validateOrderParameters - Solidity ABI encoding limitation workaround, hopefully temporary."
      },
      "validateOrder_(address[7],uint256[9],uint8,uint8,uint8,uint8,bytes,bytes,bytes,uint8,bytes32,bytes32)": {
        "details": "Call validateOrder - Solidity ABI encoding limitation workaround, hopefully temporary."
      }
    },
    "title": "WyvernExchange"
  },
  "userdoc": {
    "methods": {
      "testCopy(bytes)": {
        "notice": "Test copy byte array"
      },
      "testCopyAddress(address)": {
        "notice": "Test write address to bytes"
      }
    }
  }
}